:020000040800F2
:10000000000002205D200008A90B0008AD0B0008CD
:10001000B10B0008B50B0008B90B00080000000088
:10002000000000000000000000000000411D00086A
:10003000BD0B000800000000711D0008D11C000865
:10004000AD200008AD200008AD200008AD2000085C
:10005000AD200008AD200008AD200008AD2000084C
:10006000AD200008AD200008AD200008AD2000083C
:10007000AD200008AD200008AD200008AD2000082C
:10008000AD200008AD200008AD200008AD2000081C
:10009000AD200008AD200008AD200008AD2000080C
:1000A000AD200008C10B0008AD200008AD200008FD
:1000B000AD200008AD200008AD200008AD200008EC
:1000C000AD200008AD200008AD200008AD200008DC
:1000D000AD200008AD200008AD200008AD200008CC
:1000E000AD200008AD20000800000000AD20000891
:1000F000AD200008AD200008AD200008AD200008AC
:10010000AD200008AD200008AD200008AD2000089B
:10011000AD200008AD200008AD200008AD2000088B
:10012000AD200008AD200008AD200008AD2000087B
:10013000AD200008AD200008AD200008AD2000086B
:1001400000000000000000000000000000000000AF
:10015000AD200008AD200008AD200008AD2000084B
:10016000AD200008AD200008AD200008AD2000083B
:10017000AD200008AD200008AD2000080000000000
:10018000AD200008AD200008AD200008AD2000081B
:10019000AD200008AD200008AD200008AD2000080B
:1001A000AD200008AD200008AD200008AD200008FB
:1001B000AD200008AD200008AD200008AD200008EB
:1001C000AD200008AD200008AD200008AD200008DB
:1001D000AD200008AD200008AD200008AD200008CB
:1001E000AD200008AD200008AD200008AD200008BB
:1001F000AD200008AD200008AD200008AD200008AB
:10020000AD200008AD200008AD200008AD2000089A
:10021000AD200008AD200008AD200008AD2000088A
:10022000AD200008AD200008AD200008000000004F
:10023000AD200008AD20000800000000AD2000083F
:10024000AD200008AD200008AD200008AD2000085A
:10025000AD200008AD200008AD200008AD2000084A
:10026000AD200008AD200008AD200008AD2000083A
:10027000AD200008AD200008AD20000800000000FF
:10028000AD200008AD200008AD20000800000000EF
:0802900000000000AD20000891
:1002A00001F0FF01102A2BDB10F0070F08D010F827
:1002B000013B013A8B422DD010F0070F42B3F6D12B
:1002C000F0B441EA012141EA014122F007047FF044
:1002D00000070023F0E80256083C85EA010586EA9B
:1002E000010685FA47F5A3FA87F586FA47F6A5FAD7
:1002F00087F68EB9EED1F0BC01F0FF0102F00702E3
:1003000032B110F8013B013A83EA010313B1F8D18D
:100310000020704701387047002D06BF354603386E
:10032000073815F0010F07D1013015F4807F02BFA7
:10033000013015F4C03F0130F0BC0138704700BFF8
:1003400010F8012B11F8013B012A28BF9A42F7D07F
:10035000D01A7047034613F8012B002AFBD1181A54
:100360000138704781F0004102E000BF83F0004394
:1003700030B54FEA41044FEA430594EA050F08BF40
:1003800090EA020F1FBF54EA000C55EA020C7FEA04
:10039000645C7FEA655C00F0E2804FEA5454D4EB81
:1003A0005555B8BF6D420CDD2C4480EA020281EA4B
:1003B000030382EA000083EA010180EA020281EA83
:1003C0000303362D88BF30BD11F0004F4FEA0131D5
:1003D0004FF4801C4CEA113102D0404261EB4101E4
:1003E00013F0004F4FEA03334CEA133302D052426A
:1003F00063EB430394EA050F00F0A780A4F1010426
:10040000D5F1200E0DDB02FA0EFC22FA05F280185F
:1004100041F1000103FA0EF2801843FA05F3594145
:100420000EE0A5F120050EF1200E012A03FA0EFCC4
:1004300028BF4CF0020C43FA05F3C01851EBE371EE
:1004400001F0004507D54FF0000EDCF1000C7EEB0B
:1004500000006EEB0101B1F5801F1BD3B1F5001F49
:100460000CD349085FEA30004FEA3C0C04F1010468
:100470004FEA445212F5800F80F09A80BCF1004F91
:1004800008BF5FEA500C50F1000041EB045141EA13
:10049000050130BD5FEA4C0C404141EB0101013CDC
:1004A00028BFB1F5801FE9D291F0000F04BF0146CB
:1004B0000020B1FA81F308BF2033A3F10B03B3F19D
:1004C00020020CDA0C3208DD02F1140CC2F10C022D
:1004D00001FA0CF021FA02F10CE002F11402D8BF8B
:1004E000C2F1200C01FA02F120FA0CFCDCBF41EA57
:1004F0000C019040E41AA2BF01EB0451294330BD26
:100500006FEA04041F3C1CDA0C340EDC04F1140402
:10051000C4F1200220FA04F001FA02F340EA0300D9
:1005200021FA04F345EA030130BDC4F10C04C4F11F
:10053000200220FA02F001FA04F340EA03002946FF
:1005400030BD21FA04F0294630BD94F0000F83F449
:10055000801306BF81F480110134013D4EE77FEA2C
:10056000645C18BF7FEA655C29D094EA050F08BF78
:1005700090EA020F05D054EA000C04BF1946104659
:1005800030BD91EA030F1EBF0021002030BD5FEA9D
:10059000545C05D14000494128BF41F0004130BDC5
:1005A00014F580043CBF01F5801130BD01F0004519
:1005B00045F0FE4141F470014FF0000030BD7FEA8C
:1005C000645C1ABF194610467FEA655C1CBF0B4687
:1005D000024650EA013406BF52EA033591EA030F9E
:1005E00041F4002130BD00BF90F0000F04BF002196
:1005F000704730B54FF4806404F132044FF00005C9
:100600004FF0000150E700BF90F0000F04BF002141
:10061000704730B54FF4806404F1320410F00045A7
:1006200048BF40424FF000013EE700BF42004FEAA2
:10063000E2014FEA31014FEA02701FBF12F07F431F
:1006400093F07F4F81F06051704732F07F4208BFD6
:10065000704793F07F4F04BF41F40021704730B5DD
:100660004FF4607401F0004521F000411CE700BF29
:1006700050EA010208BF704730B54FF000050AE0AC
:1006800050EA010208BF704730B511F0004502D5AD
:10069000404261EB41014FF4806404F132045FEAAF
:1006A000915C3FF4D8AE4FF003025FEADC0C18BF58
:1006B00003325FEADC0C18BF033202EBDC02C2F14A
:1006C000200300FA03FC20FA02F001FA03FE40EADC
:1006D0000E0021FA02F11444BDE600BF53B94AB935
:1006E000002908BF00281CBF4FF0FF314FF0FF303A
:1006F00000F0E2B8ADF1080C6DE904CE23F028F962
:10070000DDF804E0DDE9022304B0704700F13401B4
:1007100091E838009C46A6464CF8045D90E8FF0F2F
:10072000E54600BD90EC210B704700BF80EC210B2B
:10073000704700BF90EC200B704700BF80EC200B8F
:10074000704700BFD0EC200B704700BFC0EC200BFF
:10075000704700BFF0EC0201F0EC0211F0EC022156
:10076000F0EC0231F0EC0241F0EC0251F0EC0261ED
:10077000F0EC0271F0EC0281F0EC0291F0EC02A1DD
:10078000F0EC02B1F0EC02C1F0EC02D1F0EC02E1CD
:10079000F0EC02F1704700BFE0EC0201E0EC021166
:1007A000E0EC0221E0EC0231E0EC0241E0EC02512D
:1007B000E0EC0261E0EC0271E0EC0281E0EC02911D
:1007C000E0EC02A1E0EC02B1E0EC02C1E0EC02D10D
:1007D000E0EC02E1E0EC02F1704700BFB0FC018107
:1007E000B0FC0191B0FC01A1B0FC01B1704700BFA9
:1007F000A0FC0181A0FC0191A0FC01A1A0FC01B121
:10080000704700BFEC4600B52DE900502DE9FF1FF1
:100810004FF000032DE90C0001A923F04DFBDDF89A
:1008200040E012B0704700BFEC4600B52DE9005023
:100830002DE9FF1F4FF000032DE90C0001A923F063
:1008400077FBDDF840E012B0704700BFEC4600B522
:100850002DE900502DE9FF1F4FF000032DE90C009A
:1008600001A923F087FBDDF840E012B0704700BF1C
:10087000EC4600B52DE900502DE9FF1F4FF00003B5
:100880002DE90C0001AB23F04BFBDDF840E012B08A
:10089000704700BFEC4600B52DE900502DE9FF1F61
:1008A0004FF000032DE90C0001AA23F0B7FBDDF89F
:1008B00040E012B0704700BF704700BF0348044BD0
:1008C000834202D0034B03B118477047D80200207F
:1008D000D8020020000000000548064B1B1AD90F63
:1008E00001EBA301491002D0034B03B11847704735
:1008F000D8020020D80200200000000010B5064CED
:10090000237843B9FFF7DAFF044B13B10448AFF380
:1009100000800123237010BDD802002000000000D9
:100920007449020808B5054B1BB105490548AFF3EA
:100930000080BDE80840FFF7CFBF00BF0000000007
:10094000DC0200207449020830B59DB04C22002121
:1009500009A81BF0C7FC2022002101A81BF0C2FC43
:10096000022000F08FFA254B0021254A0091D96A18
:1009700021F00101D962DB6A03F00103009393695E
:1009800023F4404343F480439361936903F4404369
:100990000093009B93699B04FCD540220124022311
:1009A000092109A80993129316931A931591CDE979
:1009B0000C42002213920422CDE9173314920C2327
:1009C0004FF4406219931B9200F004FB034608B1F8
:1009D00072B6FEE73F250322214601A8CDE9015268
:1009E000CDE90333CDE90533CDE9073300F0E8FD68
:1009F00008B172B6FEE71DB030BD00BF000400585C
:100A0000004802582DE9F04100248AB0234E2027E7
:100A10000DF12C08CDE90144CDE9034400F0E2F9E1
:100A200048F21F73012201A8039340F20113ADF8AD
:100A300004200493029400F0F3F9042000F0E0F99C
:100A400000F02AF9FFF780FF154C0DF1040C07ADFB
:100A50000FCCACE80F000FCC2468ACE80F00CCF84A
:100A60000040A5F1180454F8041B304612F0E9FFC9
:100A700001220DF103018DF8037012F055FFAC4215
:100A8000F1D10A23043501220DF1030130468DF81E
:100A9000033012F049FF4545E3D1D5E7700A002045
:100AA00090490208034B02689A4200D0704700F058
:100AB00023B900BF0000014010B5054C204601F0ED
:100AC00035FB2046034A0449BDE8104001F0EFBA67
:100AD000F402002000000020952300080020704749
:100AE000704700BF0B4B00220F216FF0010010B4C4
:100AF000D3F8F44083B044F00204C3F8F440D3F8D0
:100B0000F43003F002030193019B03B05DF8044B42
:100B100000F01CB9004402580F2801D90120704789
:100B200030B501468BB0002204461920194D00F063
:100B30000DF9192000F048F9174B184A694602A828
:100B40001460D3F8F02042F00102C3F8F020D3F88B
:100B5000F03003F001030193019B00F0ABFE00F0C5
:100B600097FE00220E4B2A61AA60A3FB00230D49C9
:100B700040F2E73228469B0C2960EA60013B6B603B
:100B800001F06EF810B101200BB030BD284600F026
:100B9000BFFEF9E7F80200200044025810000020D0
:100BA00083DE1B4300000140FEE700BFFEE700BFFD
:100BB000FEE700BFFEE700BFFEE700BF704700BFD3
:100BC000014800F009BF00BFF80200202749284A69
:100BD000D1F8883043F4700310B4C1F8883013683A
:100BE00003F00F03062B05D8136823F00F0343F01F
:100BF000070313601F4B00241F4A19681C4841F06B
:100C0000010119601C6119680A401A6003681B071A
:100C100005D5036823F00F0343F007030360154B6A
:100C200000221649164C17489A61DA611A629C62D2
:100C3000D86219635A639963DA6319645A6418684D
:100C4000114C20F48020114918601A66236819405D
:100C5000B1F1005F03D20E4B0122C3F808210D4B06
:100C600043F2D2025DF8044B1A60704700ED00E0D9
:100C700000200052004402587FEDF6EA8002010194
:100C8000000202020000FF010010005C0000FFFFF4
:100C9000008000510040005210B50320124C00F0BB
:100CA00043F800F06BFC114B11499A699B69C2F340
:100CB000032203F00F038A5CCB5C02F01F020D4994
:100CC00003F01F03D04020FA03F308600F202360D5
:100CD000FFF722FF10B10124204610BD0446FFF7A4
:100CE00001FF204610BD00BF08000020004402584C
:100CF000C049020804000020034A044B11681B7815
:100D00000B441360704700BF440300200C00002018
:100D1000014B1868704700BF44030020014B18685E
:100D2000000C70470010005C06494FF6FF0C0002F3
:100D3000054BCA6800F4E06002EA0C02104303436A
:100D4000CB60704700ED00E00000FA051B4BDB684C
:100D5000C3F3022300B5C3F1070E03F1040CBEF187
:100D6000040F28BF4FF0040EBCF1060F1AD9033B45
:100D70004FF0FF3C0CFA03FC22EA0C024FF0FF3C60
:100D800000280CFA0EFC21EA0C0101FA03F141EAF9
:100D900002010ADB09010A4BC9B2034483F80013BC
:100DA0005DF804FB00221346E8E700F00F0009019C
:100DB000044BC9B2034419765DF804FB00ED00E072
:100DC00000E100E0FCEC00E0002807DB012300F07C
:100DD0001F01034A40098B4042F82030704700BF92
:100DE00000E100E0BFF35F8F044B00215A6A22F458
:100DF00080325A62C3F89410704700BF00ED00E0E3
:100E0000064B40F00100C3F894005A6A42F4803265
:100E10005A62BFF34F8FBFF36F8F704700ED00E052
:100E2000174A4378C2F89830017821B3436800B577
:100E3000C2F89C30C37A90F80CC01B0690F80FE003
:100E400043EA0C7390F80AC00B43817B43EACC431E
:100E500090F80DC043EA8C4390F809C043EA41433F
:100E6000017A43EA0E4343EA0C2343EA4103C2F802
:100E7000A0305DF804FBC2F89C10C2F8A0107047C7
:100E800000ED00E038B5104CE36813F0040FE368A0
:100E900005D103F00703181A18BF012038BD23F04D
:100EA00007030343E360FFF733FF054605E0FFF761
:100EB0002FFF401BB0F57A7F04D863689B04F6D5FA
:100EC000002038BD012038BD004802583B4B30B4EB
:100ED0009A6A9C6ADD6A14F47C7F596BC4F305102E
:100EE00038D0C1F3CC0105F0010502F0030205FB87
:100EF00001F1012A07EE901AB8EEE77A02D0022A31
:100F00004ED04AB307EE900A9FED2D5AF8EEE77ADD
:100F10001B6BC5EE276ADFED2B5AC3F3080307EE00
:100F2000903AB7EE006AF8EEE77AE7EE257A77EEC8
:100F3000867A66EEA76A214B1B6BC3F34623013307
:100F400007EE903AB8EEE77AC6EE877AFCEEE77ADB
:100F500017EE900A30BC70471A68920627D51968B8
:100F600007EE900A184AF7EE005A1B6BC1F3C10155
:100F7000F8EEE77A9FED135AC3F30803CA4006EE72
:100F8000903A06EE102AF8EEE66AB8EEC66AE7EE88
:100F9000056A86EE277A76EEA56A66EE876ACAE764
:100FA00007EE900A9FED095AF8EEE77AB0E707EEF0
:100FB000900A9FED075AF8EEE77AA9E70044025835
:100FC0000024744A000000390090D00320BCBE4BBE
:100FD0000024744C002800F0E881F8B5036804464A
:100FE000D9072ED5A4490A69896A02F03802102A65
:100FF00000F00781182A00F0FF806368B3F5803F96
:1010000000F02A81002B00F06881B3F5A02F9A4BE5
:101010001A6800F0698222F480321A601A6822F499
:1010200080221A60FFF774FE934E054605E0FFF735
:101030006FFE401B642800F24E8133689B03F6D597
:1010400023689D0700F18A80D90633D58A4A13693F
:10105000926A03F03803082B00F0E380182B00F0AD
:10106000DB80E369844D002B00F06F812B6843F037
:1010700080032B60FFF74CFE064605E0FFF748FEB5
:10108000801B022800F227812B68DB05F6D5FFF7CD
:1010900045FE41F20303984200F24782226A6B68E0
:1010A000202A23F0F8430CBF43F0804343EA8263D5
:1010B0006B6023681D0716D563696F4D002B00F028
:1010C00022816B6F43F001036B67FFF721FE064639
:1010D00005E0FFF71DFE801B022800F2FC806B6F0D
:1010E0009807F6D523689A0616D5A369624D002B9A
:1010F00000F01A812B6843F480532B60FFF708FE41
:10110000064605E0FFF704FE801B022800F2E3809C
:101110002B689F04F6D52368590700F1A380606A05
:10112000D0B1554D2B6903F03803182B00F0AE8178
:101130002B68022823F080732B6000F04281FFF7B8
:10114000E7FD044605E0FFF7E3FD001B022800F27F
:10115000C2802B689B01F6D40020F8BD464A136973
:10116000926A13F038032DD1434BE2681B6859078C
:1011700001D5002A4ED0404D2B6823F019031343AC
:101180002B60FFF7C5FD064605E0FFF7C1FD801B9C
:10119000022800F2A0802B685B07F6D5FFF7BEFDA2
:1011A00041F20303984200F2F78022696B68402AFB
:1011B00023F47C330CBF43F4003343EA02336B6007
:1011C000236841E7182B00F0E3802B4DE2682B6881
:1011D000002A00F0CC8023F0190313432B60FFF7A3
:1011E00097FD064604E0FFF793FD801B022872D8A6
:1011F0002B685F07F7D5D1E701F0030102297FF4DF
:10120000FCAE1D4A126892037FF51BAF6268002A8C
:101210007FF417AF0120F8BD02F00302012A7FF42A
:1012200020AF154B1B68DA0502D5E369802BF1D19D
:10123000FFF774FD41F20303984200F2B880226A7E
:10124000202A00F087810C494B6823F0F84343EAD9
:1012500082634B6023682DE7074A136843F48033A9
:101260001360DFE6054D2B6843F480732B60FFF7B6
:101270004FFD064609E000BF0044025800480258EE
:10128000FFF746FD801B642825D82B68DA05F7D5C3
:10129000A368012B00F05881002B00F02D81052B55
:1012A000A64B1A6F00F05F8122F001021A671A6FD5
:1012B00022F004021A67FFF72BFDA04E41F2883797
:1012C000054604E0FFF724FD401BB84203D8336F06
:1012D0009B07F7D523E70320F8BD984D2B6823F42F
:1012E00080332B602B6823F480232B60FFF710FDE5
:1012F000064604E0FFF70CFD801B6428EBD82B6842
:101300009F03F7D49CE66B6F23F001036B67FFF735
:10131000FFFC064604E0FFF7FBFC801B0228DAD83E
:101320006B6F9907F7D4DDE62B6823F480532B60AD
:10133000FFF7EEFC064604E0FFF7EAFC801B0228FC
:10134000C9D82B689804F7D4E5E62B6823F080030E
:101350002B60FFF7DDFC064604E0FFF7D9FC801B9D
:101360000228B8D82B68DF05F7D42368A2E623F05B
:1013700001032B60FFF7CCFC064604E0FFF7C8FC36
:10138000801B0228A7D82B685807F7D423685BE690
:1013900090077FF41AAFE7E66B68226923F0FE43FB
:1013A00043EA02636B6023684EE601207047634A9C
:1013B000216AD36823F07C5343EA0163D360236836
:1013C00078E6FFF7A5FC064604E0FFF7A1FC801BCA
:1013D000022880D82B689901F7D4A96A584BA26AD1
:1013E0000B405849554E1343E26A43EA0213AB627D
:1013F000D4E90D32013B013A5B0212049BB202F4C4
:10140000FE021343226B013AC2F308021343E26B5C
:10141000013A120602F0FE4213432B63EB6A23F0FB
:101420000103EB626A6BA36C114041EAC30169637B
:10143000EB6A226C23F00C031343EB62EB6A626CE1
:1014400023F002031343EB62EB6A43F48033EB6255
:10145000EB6A43F40033EB62EB6A43F48023EB6204
:10146000EB6A43F00103EB622B6843F080732B605F
:10147000FFF74EFC044605E0FFF74AFC001B02287C
:101480003FF629AF33689A01F6D565E60128AA6AC6
:101490002D6B3FF462AE02F00303A16A8B427FF42E
:1014A000B9AEC2F30512E36A9A427FF4B3AE236B7E
:1014B000C5F30802013B9A427FF4ACAE636BC5F3FF
:1014C0004622013B9A427FF4A5AEA36BC5F30642C8
:1014D000013B9A427FF49EAEE06BC5F3066501388E
:1014E000281A18BF0120F8BD42F480221A601A6839
:1014F00042F480321A6095E5104D41F288372B6F27
:1015000023F001032B672B6F23F004032B67FFF7F6
:10151000FFFB064605E0FFF7FBFB801BB8423FF6EA
:10152000DAAE2B6F9807F6D4F9E5EB68226A23F060
:101530007C5343EA0263EB602368BBE50044025836
:101540000CFCFFFF0700FFFF0B4A136F43F0010382
:101550001367B0E6084A536823F0F84343F080432A
:1015600053602368A6E542F004021A671A6F42F03E
:1015700001021A679FE600BF004402580C4A136933
:1015800003F03803102B04D0182B0DD01BB10948E1
:1015900070470948704713689B0607D513680748CA
:1015A000C3F3C103D8407047FFF790BC03487047AE
:1015B0000044025800093D0040787D010090D003AE
:1015C000002800F00C818C4A136803F00F038B4253
:1015D0002DE9F04104460D460CD2136823F00F03A9
:1015E0000B431360136803F00F038B4202D00120FA
:1015F000BDE8F08123685F070BD5804920698A69BF
:1016000002F07002904204D98A6922F0700202430B
:101610008A611E070BD579496069CA6902F07002B8
:10162000904204D9CA6922F070020243CA61D80606
:101630000BD57249A069CA6902F4E062904204D9EC
:10164000CA6922F4E0620243CA6199060BD56B496C
:10165000E0690A6A02F07002904204D90A6A22F034
:10166000700202430A629A0740F1AB806348E16866
:10167000826902F00F02914204D9826922F00F02BE
:101680000A438261D80730D55C4AA168936923F484
:1016900070630B43936161681368022900F0A180B5
:1016A000032900F09880012900F0A18058079ED5F9
:1016B000524E41F28838336923F007030B433361FC
:1016C000FFF726FB074605E0FFF722FBC01B40455E
:1016D00000F28B803369626803F03803B3EBC20F0A
:1016E000F2D12368990706D5E1684448826902F07F
:1016F0000F028A4269D840490A6802F00F02AA42E2
:101700000AD90A6822F00F022A430A600A6802F026
:101710000F02AA427FF46BAF5A070BD537492069F5
:101720008A6902F07002904204D28A6922F0700243
:1017300002438A611F070BD530496069CA6902F00C
:101740007002904204D2CA6922F070020243CA6158
:10175000DE060BD52949A069CA6902F4E06290420D
:1017600004D2CA6922F4E0620243CA619D060BD525
:10177000224AE169136A03F07003994204D2136AA2
:1017800023F070030B431362FFF7F8FE1B4A034676
:101790001B4891699269C1F303211A4D02F00F02AF
:1017A000194C415C825C01F01F01184802F01F02D5
:1017B000CB4000682B60D3402360BDE8F041FFF7C9
:1017C000ABB9DA073FF560AF95E7826922F00F0207
:1017D0000A4382618FE79F013FF56AAF07E7012067
:1017E00070479B033FF564AF01E7032000E7DE0588
:1017F0003FF55EAFFBE600BF0020005200440258F8
:10180000C049020804000020080000201000002049
:10181000184A38B5136903F03803102B1AD0182B67
:1018200023D0CBB11448134B14499A699B69C2F376
:101830000322134C03F00F03124D8A5CCB5C02F0C1
:101840001F0220FA02F203F01F0022FA00F02A60C1
:10185000206038BD0C48E6E713689B0608D513687E
:101860000A48C3F3C103D840DDE7FFF72FFBDAE7EF
:101870000648D8E70044025800093D00C049020864
:10188000080000200400002040787D010090D00373
:1018900008B5FFF7BDFF054B054ADB69C3F302231B
:1018A000D35C03F01F03D84008BD00BF00440258BA
:1018B000C0490208134B3F2202601A6902F0070276
:1018C00042609A6902F4706282609A6902F00F02C3
:1018D000C2609A6902F070020261DA6902F0700275
:1018E0004261DA6902F4E06282611B6A10B403F0BB
:1018F0007003054CC36123685DF8044B03F00F03CC
:101900000B6070470044025800200052704700BF2F
:1019100090F83D30012B41D102680221244BB2F1F5
:10192000804F18BF9A4230B40CBF01230023214DD1
:10193000214CAA4208BF43F0010380F83D10D16852
:10194000A24208BF43F0010304F5806441F00101A5
:101950001A48A24208BF43F00103D160824208BF87
:1019600043F0010316498A4208BF43F0010333B92B
:1019700000F57050101AB0FA80F0400998B19168E3
:10198000104B0B40062B0BD0B3F5803F08D01368EB
:10199000002043F00103136030BC70470120704702
:1019A000002030BC7047136843F001031360F3E775
:1019B0000000014000040040000800400004014015
:1019C0000018004007000100704700BF704700BFCB
:1019D000704700BF704700BF03681A69910710B5D0
:1019E000044602D5DA68920768D41A69520702D50C
:1019F000DA6850074FD41A69110702D5DA6812075E
:101A000037D41A69D00602D5DA68D1061ED41A690D
:101A1000D20702D5DA68D00769D41A69110602D54F
:101A2000DA6812066BD41A69D00502D5DA68110695
:101A30006DD41A69520602D5DA6850066FD41A6955
:101A4000910602D5DA68920649D410BD6FF01001F4
:101A50000822204619612277DB6913F4407F6FD199
:101A6000FFF7B2FF2046FFF7B3FF0022236822777B
:101A7000CDE76FF008010422204619612277DB6967
:101A80009B075AD1FFF7A0FF2046FFF7A1FF0022D6
:101A900023682277B5E76FF004010222204619611E
:101AA00022779B6913F4407F44D1FFF78DFF2046D6
:101AB000FFF78EFF0022236822779CE76FF0020178
:101AC0000122196102779B69990730D1FFF77CFFEA
:101AD0002046FFF77DFF00222368227785E76FF01D
:101AE000200220461A61BDE8104000F0EBB86FF00C
:101AF000010220461A61FEF7D5FF23688DE76FF0DB
:101B0000800220461A6100F0DFF823688BE76FF44B
:101B1000807220461A6100F0D9F8236889E76FF0D7
:101B2000400220461A61FFF755FF236887E7FFF759
:101B30004DFFD0E7FFF74AFFBCE7FFF747FFA6E7F7
:101B4000FFF744FF91E700BF3F4AB0F1804F0368C1
:101B5000A0EB0202B2FA82F230B44FEA521223D062
:101B600012BB3A4CA04247D004F58064A04243D057
:101B700004F58064A04249D004F57844A04245D0E1
:101B8000334C344A904218BFA0424FD002F58062D5
:101B900090424BD04D6923F080038C680A682B4338
:101BA0000360C462826223E04C6823F07003234325
:101BB000294C041BB4FA84F46409CD6823F44073FF
:101BC0002B434D6923F080032B4303608B68C36272
:101BD0000B68836252B94CB91D4A1E4B984218BF1C
:101BE000904203D003F58063984201D10B690363EF
:101BF000012330BC43617047174C23F070034D68DC
:101C0000041B2B43B4FA84F46409D6E74D6823F02F
:101C10007003114C2B43114D041BA842B4FA84F4F9
:101C20004FEA5414C9D0002CC7D1A9E7CC6823F4DB
:101C300040734A6923438C6823F0800313430A6886
:101C40000360C4628262C7E70000014000040040F4
:101C5000004001400044014000040140000C0040ED
:101C600070B310B590F83D30044603F0FF0213B393
:101C70002146022384F83D3051F8040BFFF764FF3E
:101C80000123002084F8483084F83E3084F83F3047
:101C900084F8403084F8413084F8423084F843308E
:101CA00084F8443084F8453084F8463084F847306E
:101CB00084F83D3010BD80F83C20FFF727FED7E7C1
:101CC00001207047704700BF704700BF704700BFDA
:101CD00008B54FF0E0231B6900F0B0F9012800D1EE
:101CE00008BDBDE8084000F075B800BF4368026851
:101CF00010B49C6801324B608C609C686160996094
:101D00005DF8044B08610260704700BF036910B4BE
:101D10005C68D0E9011284425DF8044B8A6051602E
:101D20004FF0000108BF5A601A680161013A1A6059
:101D3000186870470000000000000000000000006C
:101D4000074B19680868B0E8F04F80F30988BFF3C3
:101D50006F8F4FF0000080F311887047AFF3008061
:101D60004803002000000000000000000000000008
:101D7000EFF30980BFF36F8F154B1A681EF0100F39
:101D800008BF20ED108A20E9F04F10602DE909000E
:101D90004FF0500080F31188BFF34F8FBFF36F8F68
:101DA00000F0E6F84FF0000080F3118809BC1968D4
:101DB0000868B0E8F04F1EF0100F08BFB0EC108AB2
:101DC00080F30988BFF36F8F704700BFAFF30080C7
:101DD0004803002008B54FF0500383F31188BFF388
:101DE0006F8FBFF34F8F00F00BF828B14FF0E02357
:101DF0004FF08052C3F8042D002383F3118808BDEF
:101E0000504B1B682DE9F04F83B0002B46D14E4B51
:101E10001E6801361E60002E49D0DFF844B1DBF8A1
:101E200000309E4250D3494F3B681D68002D77D04B
:101E30000025DFF83091DFF830A1DFF8308122E0B3
:101E40000191FFF763FFA36A04F11800019913B130
:101E5000FFF75CFF0199E06AD8F80030984201D999
:101E6000C8F8000000EB800009EB8000FFF73EFFA0
:101E7000DAF80030E26ADB6A9A4228BF01253B6843
:101E80001B68002B50D03B68DB68DC686368211D51
:101E90009E420846D4D2CBF800301AE02C4A0025E6
:101EA000136828460133136003B0BDE8F08F274B59
:101EB0001A6812680AB34FF0500383F31188BFF316
:101EC0006F8FBFF34F8FFEE70025DFF89890DFF8A4
:101ED00098A0DAF800301F49DB6A03EB83039B000C
:101EE00059F803200B68022A28BF0125002B18BFD0
:101EF0000125284603B0BDE8F08F174A186811681D
:101F00001960164910600A6801320A601A6812687E
:101F10007AB9DFF84CB04FF0FF33CBF800307EE7F2
:101F2000DFF84090DFF840A04FF0FF33CBF80030EF
:101F3000CFE71B68DFF828B0DB68DB685B68CBF8AD
:101F400000306CE7B8070020D00700204C030020C9
:101F5000C8070020D407002050030020C407002039
:101F6000C00700205403002048030020BC070020C5
:101F700038B52B4B1B681BB12A4B01221A6038BDA8
:101F8000284A294C1360FEF7A9FD284B196888429E
:101F90002CD822682168126818600B6B9A4234D9D9
:101FA000234D24492B6803EB8302980092008A5842
:101FB00042B90BB3013B03EB8302980051F8222096
:101FC000002AF6D0184401EB800CDCF804106246BD
:101FD000496808329142CCF804101CD0C968164AEE
:101FE00021602B6023686033136038BD2568AA6DBB
:101FF000521A0244AA65CCE74FF0500383F31188CC
:10200000BFF36F8FBFF34F8FFEE720682168343135
:10201000FEF766FDC4E74968CCF80410DEE700BFB0
:10202000B8070020D407002048030020B407002090
:10203000BC070020540300209C000020054B1B68B7
:1020400033B1054B1868B0FA80F040094000704782
:1020500001207047CC070020B8070020DFF834D0FB
:10206000FEF7B4FD0C480D490D4A002302E0D45898
:10207000C4500433C4188C42F9D30A4A0A4C0023D2
:1020800001E013600432A242FBD319F0A5FFFEF772
:10209000B9FC70470000022000000020D802002098
:1020A000C4910208D80200204C1E0020FEE70B4617
:1020B0000146184619F0ECBB37B5051D0446284605
:1020C00001910BF007FE0023C4E91D33C4E920335E
:1020D000C4E9223384F87C30054B019923602846FB
:1020E0001433636003B0BDE830400BF0DCBD00BFCB
:1020F000646F020837B5051D0446284601910BF0B0
:10210000E9FD0023C4E91F33C4E921336367A4F860
:102110007830054B0199236028461433636003B07F
:10212000BDE830400BF075BD346F02082DE9F04F6B
:10213000DFF844922DED028BD9F80040631C08EEC5
:10214000100A83B0C9F80030002C40F0ED80DFF8B1
:102150002CB2794B794F7A4EDFF824A201221A7003
:10216000DBF80030774A9D68BC61C7E90024C7E905
:102170000244C7E9044407F11C0000F0ABFEDBF8A1
:102180000010704A3D624FF0FF384D68C7F800A05C
:10219000C7F82480C6E90024C6E90244C6E904441D
:1021A000B46106F11C0000F095FEC6E90858DBF8A2
:1021B0000010654D634ACB68C6F800A0C5E900244D
:1021C000C5E90244C5E90444AC6105F11C00019372
:1021D00000F080FE019BC5F800A0DFF8A8A1C5E9CA
:1021E000083839465046FFF785FF584A10460BF02D
:1021F00071FD564A564942F8081CA2F108071431ED
:10220000B9603146534E1467C2E91E44C2E9204406
:10221000A2F8744042F8044C10460BF0FAFC294630
:102220003046FFF767FF29464B48FFF763FF3269E7
:10223000DBF80030C7F878A042F40052474F326113
:10224000474A9D68C6F874A0C7E90024C7E902445C
:10225000C7E90444BC6107F11C0000F03BFE414E9D
:10226000DBF800103E4ADFF820A1C7F800A0C7E95C
:10227000085806F11C004D68B461C6E90024C6E99F
:102280000244C6E9044400F025FEDBF80010344A9D
:10229000D1F80CB0C6F800A0C6E90858324DC5E91F
:1022A0000024C5E90244C5E90444AC6105F11C0001
:1022B00000F010FEC5E908B8DFF8D0B0DFF8D08034
:1022C000C5F800A039465846FFF7F6FE40460BF029
:1022D00001FD264B88F87840A8F10807C8E91C449E
:1022E000C8E91F44C8E9214448F8083C48F8044CB0
:1022F00014331F4CBB60314640460BF0D4FC2946DA
:102300002046FFF7D9FE1B482946FFF7D5FE236973
:10231000C8F870B043F400532361D9F80030C4F812
:1023200074B00133C9F8003018EE100A03B0BDECE8
:10233000028BBDE8F08F00BF1400002028080020A9
:10234000D80700204C70020800080020D0080020A8
:10235000F868020858090020E4090020A0080020BD
:102360008C700208500800207808002028690208B4
:10237000900B0020200C0020441D00209C00002019
:1023800034670208700A002074670208B00C00204D
:10239000040B00200D4A1368591E022B10B5044689
:1023A000116011D10A4811F023FA0A4811F020FAFD
:1023B000094811F01DFA094811F071FA084811F0A6
:1023C0006EFA084811F06BFA204610BD441D00203B
:1023D000700A002058090020E4090020B00C0020F9
:1023E000900B0020200C002070474268511E012AEB
:1023F000416002D103685B6818477047044A0B6864
:102400001268036093421EBF1A6801321A60704757
:10241000440D00200160704702490348002218F073
:1024200073BC00BFD04902084C0D002010B5034C0E
:1024300023680BB9FFF7F0FF206810BD4C0D00209A
:1024400000487047D049020838B543680446B3B91C
:102450006068B0B9E36813BBE06810BB23691BBBBD
:10246000206958BB204638BD52F8250008B1FFF757
:10247000BCFF0135D4E90123AB42F5D8E8E70025DC
:10248000F8E718F001F8E5E752F8250008B1FFF782
:10249000ACFF0135D4E90232AB42F5D8DCE70025C8
:1024A000F8E717F0F1FFD9E700252369585908B17B
:1024B00017F0EAFF0435182DF7D1D1E717F0E4FF44
:1024C000D0E703685A1E012B10B50446026006D1FE
:1024D000FFF7BAFF2046BDE8104017F0D1BF10BD8E
:1024E000054B10B51B6804460068984201D0FFF701
:1024F000E8FF204610BD00BF440D00200A4A38B551
:102500000B680D4611688B4218BF1A6804460068B4
:102510001CBF01321A60814201D0FFF7D2FF2B6845
:102520002360204638BD00BF440D0020036823B956
:10253000034A136801331360036000680138704771
:10254000480D00202DE9F84F044617460846002A9A
:102550005BD0FFF7EBFFA368013B9842054645D9E6
:1025600000F104086FF06043984534BF4FEA880BD0
:102570004FF0FF3B5846D4F8049018F00EF8A268CC
:1025800006460020904242D1C0F104022A44920043
:10259000804538BF0022002106EB800019F0A2FE22
:1025A0005846D4F80CA017F0F8FFA2688346002024
:1025B000904233D1C0F104022A449200804538BFD2
:1025C000002200210BEB800019F08CFEC4E90168A9
:1025D000C4F80CB0B9F1000F02D0484617F054FF10
:1025E000BAF1000F02D0504617F04EFF7B686668C4
:1025F00001337B6056F82530002B4CD146F825700E
:1026000000252E46A3689D4248D3BDE8F88F616837
:1026100051F8201046F820100130B3E7E16851F876
:1026200020104BF820100130C2E7D8F80400FFF763
:102630007DFF85420AD10846FFF778FF56F8203023
:1026400080461BB3384602F073FF15E008F1080816
:10265000D8F80010D1B10846FFF768FF8542E4D1F1
:10266000D8F804100846FFF761FF56F8203080467E
:1026700063B1384608F07AF8436801338146436015
:1026800056F82800FFF7B1FE46F8289056F82500C6
:10269000FFF7ABFEB2E7DFF81C80D9E7E36853F839
:1026A000250020B1FFF7A1FEE36843F8256001355E
:1026B000A8E700BFF04902082DE9F041214F3B682F
:1026C000BFF35B8FDB0706460C46154606D438463B
:1026D00017F03BFF10B1384617F043FF1A490F6857
:1026E00017B94FF0FF3308E03846FFF71FFFA84245
:1026F00048680DD1FFF71AFF0346F16851F825200D
:1027000092B1ECB1236820465B68BDE8F041184700
:10271000FFF70CFFA84205D13846FFF707FF2B460D
:102720000546EAE70831DAE76268501C6060581C29
:1027300018BF023241F825401CBF626041F82340B7
:10274000BDE8F081400D0020F049020810B5084CAA
:102750002368BFF35B8FDB0708D4204617F0F5FE34
:1027600020B12046BDE8104017F0FBBE10BD00BFF1
:10277000540D00202DE9F04F30238360C24B0160DF
:1027800087B00646C0220021184619F0ABFDBF4BAA
:102790007060C0221846002119F0A4FDBC4CBD4D4C
:1027A000F06014220021201D19F09CFD3461256089
:1027B000FFF746FEB84C03882B8000220123114608
:1027C000204604F0ABFB22463046B449B44CDFF857
:1027D000C4A3DFF8C4B3B34DDFF8C093DFF8C08300
:1027E000FFF7B0FEB04A0121104618F0F1FA30466A
:1027F000AD4AAE49FFF7A6FEAD4AAE4B13600127C6
:102800000023C2E90233C2E90533C2E90733137476
:10281000938482F8643057601146A74A676022604B
:10282000A1602046194600F00FFF22463046A3491A
:10283000A34CFFF787FEA34AA349576011603046B7
:10284000A249FFF77FFEA24AA249576011603046B5
:10285000A149FFF777FEA14A67602260FFF7E6FD16
:102860002246A0609E499F4C3046FFF76BFE9E4A71
:10287000CAF8002000239D4A676019462260C4F808
:1028800008A01A462046CAE90233CAE90533CAE954
:102890000733CAE90933CAE90B33AAF810308AF8BA
:1028A0001230CAF834308AF84330CAF8047000F0A5
:1028B0006FFB224630468E498E4CFFF743FE8E4A10
:1028C000CBF8002000238D4A676019462260C4F8C7
:1028D00008B01A462046CBE90233CBE90533CBE9F1
:1028E0000733CBE90933CBE90B33ABF810308BF866
:1028F0001230CBF834308BF84330CBF8047000F052
:1029000003FB224630467E497E4CFFF71BFE7E4A83
:102910007E495760116030467D49FFF713FE7D4ABE
:102920007D495760116030467C49FFF70BFE00235C
:102930007B4A6F60C5E90233C5E90433C5E9063354
:10294000C5E90833C5E90A33C5E90C33C5E90E33D7
:10295000C5E91033C5E91233C5E91433C5E91633A7
:10296000C5E91833C5E91A33C5E91C33C5E91E3377
:102970002A602946C5E920333A46C5E92233C5E92C
:102980002433C5E92633C5E92833C5E92A33C5E927
:102990002C33C5E92E33C5F8C03085F8C430204645
:1029A0000BF02CFE224630465E495F4CFFF7CAFD15
:1029B0005E4A5F495760116030465E49FFF7C2FDCD
:1029C0005D4A5E495760116030465D49FFF7BAFDC8
:1029D0005C4A3946104605F05BF83046594A5A4978
:1029E000FFF7B0FD594A3946104604F083FA3046E5
:1029F000564A5749FFF7A6FD564A3946104618F081
:102A0000F7F93046534A5449FFF79CFD534B544A5B
:102A10001A601A465F600023C2E90233C2E9053337
:102A2000C2E9073313745362936282F8243111466A
:102A30004C4A67602260A1602046194600F06CFE97
:102A4000224630464849494CFFF77CFD484A4949EF
:102A50005760116030464849FFF774FD474A4849BE
:102A60005760116030464749FFF76CFD464A676082
:102A70002260FFF7DBFC2246A0604449444C30460C
:102A8000FFF760FD8EE000BFFC1A00200C1A00204A
:102A9000F4190020E4120020F0120020BC1C0020D9
:102AA000780D0020EC0F0020CC1A00200C1E002016
:102AB0005C0E0020F84A02084C590208F01C002065
:102AC000E41A0020BC1B0020E8690208A41D0020B5
:102AD000CC1B0020246A0208A01D002030590208E7
:102AE000E41C00201C0E0020904A0208A459020891
:102AF000F81C0020280E0020804A020870590208A5
:102B0000F41C0020E00D0020C00D0020F459020844
:102B1000001D0020D00D00200C5A0208FC1C0020D3
:102B2000546A0208881D0020840D0020900D0020AA
:102B3000245A0208EC1C0020A00D0020546B02084F
:102B4000841D0020580D0020E81C002010150020D6
:102B5000C01C0020D81A0020101E0020C40E002027
:102B6000084B020824640208301D0020F01A0020DF
:102B7000C41B0020E0710208041E0020D41B0020AA
:102B80001C720208001E002008640208241D002098
:102B9000340E00207C110020C011002004120020FF
:102BA000741200208F4AC9F8002000238E4A676003
:102BB00019462260C4F808901A462046C9E9023333
:102BC000C9E90533C9E90733C9E90933C9E90B3351
:102BD000C9E90D3389F81030C9F83C3089F86C30F8
:102BE000C9F8047000F094FA224630467F49804CC0
:102BF000FFF7A8FC7F4AC8F8002000237E4A6760E0
:102C000019462260C4F808801A462046C8E90233F3
:102C1000C8E90533C8E90733C8E90933C8E90B3304
:102C2000C8E90D3388F81030C8F83C3088F86C30AB
:102C3000C8F8047000F024FA224630466F49704C00
:102C4000FFF780FC6F4A70495760116030466F494A
:102C5000FFF778FC6E4A6F495760116030466E4945
:102C6000FFF770FC00236D4A6760C4E90233C4E9D2
:102C70000433C4E90633C4E90833C4E90A33C4E9B8
:102C80000C33C4E90E33C4E91033C4E91233C4E988
:102C90001433C4E91633C4E91833C4E91A33C4E958
:102CA0001C33C4E91E332260C4E92033C4E9223353
:102CB000C4E92433C4E92633C4E92833C4E92A33F8
:102CC000C4E92C33C4E92E33C4F8C03084F8C430CE
:102CD000534B3A462146184612F006F8504B5149DC
:102CE0001A463046FFF72EFC4F4A504B5760136090
:102CF00030464F49FFF726FC4E4A4F4B1360576052
:102D000030464E49FFF71EFC4D4A3946104608F042
:102D100021FE30464A4A4B49FFF714FC4A4A4B4BC6
:102D20005760136030464A49FFF70CFC494A4A4B4A
:102D30005760136030464949FFF704FC484A494B45
:102D40005760136030464849FFF7FCFB474A484B41
:102D50005760136030464749FFF7F4FB4649474B3D
:102D6000CDF808B0CDE9031930466946CDE9003AFF
:102D7000CDF8148001F0E2FA4148F768FFF7D6FB7E
:102D80003E4B47F820303F48F768FFF7CFFB47F846
:102D900020A03D48F768FFF7C9FB47F820B03B4843
:102DA000F768FFF7C3FB47F820503948F568FFF78D
:102DB000BDFB314945F820100C48F568FFF7B6FB1C
:102DC00045F820900D48F568FFF7B0FB45F82080E6
:102DD0001448F568FFF7AAFB45F82040304607B0D5
:102DE000BDE8F08FB04A02087C640208381D00205C
:102DF000400E0020A04A020848640208341D00204A
:102E0000B4100020C80D0020CC640208401D002032
:102E1000D80D0020E46402083C1D00204C7202081A
:102E2000F40D0020E81D0020980D0020FC6402082D
:102E30002C1D0020A80D00204C730208E41D00206A
:102E4000680D0020281D0020B00D0020484E02080B
:102E5000E81B0020B80D0020F04D0208E01B002008
:102E60004C0E00201C4E0208E41B0020540E0020D3
:102E7000C44D0208DC1B0020C40E00205C0E0020A4
:102E8000F01C0020F81C0020F41C0020881D0020ED
:102E9000301D002010B5074C02212046FFF76AFCC8
:102EA000054B06481C60064B21461C60BDE81040DF
:102EB000FFF7B0BA080E0020440D0020F0190020E2
:102EC000500D0020024B1B680BB9FFF7E3BF7047A2
:102ED000440D002038B5002303600446084DFFF779
:102EE000F1FF084A2B6812682360934206D0FFF76F
:102EF0002DFC2B6823601A6801321A60204638BD09
:102F0000500D0020440D002038B584680546ACB94A
:102F1000442017F031FB1A4B0482C0E90034C0E9A9
:102F20000244C0E90544C0E90744C0E90944C0E9D6
:102F30000B448474446380F84340A860AB68114933
:102F40002E225A74AB682C229A74AA680023C2E914
:102F50000513C2E90713C2E9091391600A49D36056
:102F600008681063D362AA685063084A1068AA68A8
:102F7000C15C1A4401330B2B82F83810F7D138BDED
:102F8000804A0208D78C0208C47A02082000002078
:102F900038B584680546ACB9442017F0EDFA1A4BF1
:102FA0000482C0E90034C0E90244C0E90544C0E934
:102FB0000744C0E90944C0E90B448474446380F8C1
:102FC0004340A860AB6811492E225A74AB682C228A
:102FD0009A74AA680023C2E90513C2E90713C2E97B
:102FE000091391600A49D36008681063D362AA6824
:102FF0005063084A1068AA68C15C1A4401330B2B5D
:1030000082F83810F7D138BD904A0208D78C0208F0
:10301000C47A020820000020064B10B50446036065
:10302000806810B103685B6898472046FFF7DCF9B9
:10303000204610BD7059020810B50446FFF7ECFF9A
:10304000204617F01DFA204610BD0000064B10B5B3
:1030500004460360806810B103685B6898472046A7
:10306000FFF7C2F9204610BDA459020810B5044666
:10307000FFF7ECFF204617F003FA204610BD0000D2
:1030800038B584680546B4B9702017F075FAC0E900
:103090000244C0E90544C0E90744C0E90944C0E965
:1030A0000B44C0E90D44154B446003600474C463D1
:1030B00080F86C40A860AB682E212C22C3E9051271
:1030C0000F49104A9A600022C3E90712C3E90912A6
:1030D000C3E90B12DA605A630B4A10689863AB6855
:1030E000D8630A4BAA681B684032591E0A3311F88C
:1030F000010F42F8040B9942F9D138BDA04A0208E9
:1031000020900208D78C0208C47A02082000002010
:1031100038B584680546B4B9702017F02DFAC0E9B7
:103120000244C0E90544C0E90744C0E90944C0E9D4
:103130000B44C0E90D44154B446003600474C46340
:1031400080F86C40A860AB682E212C22C3E90512E0
:103150000F49104A9A600022C3E90712C3E9091215
:10316000C3E90B12DA605A630B4A10689863AB68C4
:10317000D8630A4BAA681B684032591E0A3311F8FB
:10318000010F42F8040B9942F9D138BDB04A020848
:1031900020900208D78C0208C47A02082000002080
:1031A000064B10B504460360806810B103685B6885
:1031B00098472046FFF718F9204610BD48640208DA
:1031C00010B50446FFF7ECFF204617F059F92046EA
:1031D00010BD0000064B10B504460360806810B1B6
:1031E00003685B6898472046FFF7FEF8204610BD4D
:1031F0007C64020810B50446FFF7ECFF204617F088
:103200003FF9204610BD00000D4B10B5036090F84B
:10321000433004467BB1806808B117F035F9606926
:1032200008B117F031F9E06908B117F02DF9606ABB
:1032300008B117F029F92046FFF7D6F8204610BD4F
:10324000804A020810B50446FFF7DEFF204617F05B
:1032500017F9204610BD00000D4B10B5036090F823
:10326000433004467BB1806808B117F00DF96069FE
:1032700008B117F009F9E06908B117F005F9606ABB
:1032800008B117F001F92046FFF7AEF8204610BD4F
:10329000904A020810B50446FFF7DEFF204617F0FB
:1032A000EFF8204610BD00000D4B10B5036090F8FC
:1032B0006C3004467BB1806808B117F0E5F8E0692E
:1032C00008B117F0E1F8606A08B117F0DDF8E06ABC
:1032D00008B117F0D9F82046FFF786F8204610BD50
:1032E000A04A020810B50446FFF7DEFF204617F09B
:1032F000C7F8204610BD00000D4B10B5036090F8D4
:103300006C3004467BB1806808B117F0BDF8E06905
:1033100008B117F0B9F8606A08B117F0B5F8E06ABB
:1033200008B117F0B1F82046FFF75EF8204610BD4F
:10333000B04A020810B50446FFF7DEFF204617F03A
:103340009FF8204610BD000038B584680546ACB92A
:10335000442017F011F91A4B0482C0E90034C0E987
:103360000244C0E90544C0E90744C0E90944C0E992
:103370000B448474446380F84340A860AB681149EF
:103380002E225A74AB682C229A74AA680023C2E9D0
:103390000513C2E90713C2E9091391600A49D36012
:1033A00008681063D362AA685063084A1068AA6864
:1033B000C15C1A4401330B2B82F83810F7D138BDA9
:1033C000804A0208D78C0208C47A02082000002034
:1033D00038B584680546ACB9442017F0CDF81A4BCF
:1033E0000482C0E90034C0E90244C0E90544C0E9F0
:1033F0000744C0E90944C0E90B448474446380F87D
:103400004340A860AB6811492E225A74AB682C2245
:103410009A74AA680023C2E90513C2E90713C2E936
:10342000091391600A49D36008681063D362AA68DF
:103430005063084A1068AA68C15C1A4401330B2B18
:1034400082F83810F7D138BD904A0208D78C0208AC
:10345000C47A020820000020064B10B50446036021
:10346000806810B103685B6898472046FEF7BCFF90
:10347000204610BD746A020810B50446FFF7ECFF41
:10348000204616F0FDFF204610BD0000064B10B58B
:1034900004460360806810B103685B689847204663
:1034A000FEF7A2FF204610BDA86A020810B5044628
:1034B000FFF7ECFF204616F0E3FF204610BD0000AA
:1034C00038B584680546B4B9702017F055F8C0E9DE
:1034D0000244C0E90544C0E90744C0E90944C0E921
:1034E0000B44C0E90D44154B446003600474C4638D
:1034F00080F86C40A860AB682E212C22C3E905122D
:103500000F49104A9A600022C3E90712C3E9091261
:10351000C3E90B12DA605A630B4A10689863AB6810
:10352000D8630A4BAA681B684032591E0A3311F847
:10353000010F42F8040B9942F9D138BDA04A0208A4
:1035400020900208D78C0208C47A020820000020CC
:1035500038B584680546B4B9702017F00DF8C0E995
:103560000244C0E90544C0E90744C0E90944C0E990
:103570000B44C0E90D44154B446003600474C463FC
:1035800080F86C40A860AB682E212C22C3E905129C
:103590000F49104A9A600022C3E90712C3E90912D1
:1035A000C3E90B12DA605A630B4A10689863AB6880
:1035B000D8630A4BAA681B684032591E0A3311F8B7
:1035C000010F42F8040B9942F9D138BDB04A020804
:1035D00020900208D78C0208C47A0208200000203C
:1035E000064B10B504460360806810B103685B6841
:1035F00098472046FEF7F8FE204610BD6C72020880
:1036000010B50446FFF7ECFF204616F039FF2046C0
:1036100010BD0000064B10B504460360806810B171
:1036200003685B6898472046FEF7DEFE204610BD23
:10363000A072020810B50446FFF7ECFF204616F012
:103640001FFF204610BD000038B58468054684B9C8
:10365000682016F091FFC0E90244C0E90544C0E9C2
:1036600007441A4B446003600474848480F8644007
:10367000A860AA68164B93602E21002382F82410BC
:10368000D3601374AA682C2182F82510114A10689F
:10369000AA68C15C1A440133242B82F82610F7D1A2
:1036A0000D4B18680023AA68C15C1A4401331A2B19
:1036B00082F84A10F7D1AB68084A5A6104229A612D
:1036C000074ADA6105221A6238BD00BFF84A0208CB
:1036D000D78C02081C00002018000020B84A0208FD
:1036E000BD4A0208064B10B504460360806810B15D
:1036F00003685B6898472046FEF776FE204610BDBB
:103700004C59020810B50446FFF7ECFF204616F0AE
:10371000B7FE204610BD000038B58468054694B950
:103720004FF4947016F028FFC0E90244C0E9054444
:10373000C0E90744C0E90944184B446003600474BD
:1037400080F82441A860AB68154A9A6000222E21B7
:10375000DA601A742C22C3E90912124A126803F1C2
:103760002C00511E233211F8014F40F8044B9142B6
:10377000F9D10D4A126803F1BC00511E193211F83B
:10378000014F40F8044B9142F9D1084A5A61042292
:103790009A61074ADA6105221A6238BD084B0208AD
:1037A000D78C02081C00002018000020C44A020820
:1037B000D84A0208064B10B504460360806810B171
:1037C00003685B6898472046FEF70EFE204610BD52
:1037D0002464020810B50446FFF7ECFF204616F0FB
:1037E0004FFE204610BD00000B4B10B5036090F853
:1037F000643004465BB1806808B116F045FE60692C
:1038000008B116F041FEE06908B116F03DFE204611
:10381000FEF7EAFD204610BDF84A020810B504463E
:10382000FFF7E2FF204616F02BFE204610BD0000F9
:103830000B4B10B5036090F8243104465BB18068EF
:1038400008B116F021FE606908B116F01DFEE069AE
:1038500008B116F019FE2046FEF7C6FD204610BD41
:10386000084B020810B50446FFF7E2FF204616F0A9
:1038700007FE204610BD000038B58468054684B9AF
:10388000682016F079FEC0E90244C0E90544C0E9A9
:1038900007441A4B446003600474848480F86440D5
:1038A000A860AA68164B93602E21002382F824108A
:1038B000D3601374AA682C2182F82510114A10686D
:1038C000AA68C15C1A440133242B82F82610F7D170
:1038D0000D4B18680023AA68C15C1A4401331A2BE7
:1038E00082F84A10F7D1AB68084A5A6104229A61FB
:1038F000074ADA6105221A6238BD00BFF84A020899
:10390000D78C02081C00002018000020B84A0208CA
:10391000BD4A0208064B10B504460360806810B12A
:1039200003685B6898472046FEF75EFD204610BDA1
:10393000C469020810B50446FFF7ECFF204616F0F4
:103940009FFD204610BD000038B58468054694B937
:103950004FF4947016F010FEC0E90244C0E905442B
:10396000C0E90744C0E90944184B4460036004748B
:1039700080F82441A860AB68154A9A6000222E2185
:10398000DA601A742C22C3E90912124A126803F190
:103990002C00511E233211F8014F40F8044B914284
:1039A000F9D10D4A126803F1BC00511E193211F809
:1039B000014F40F8044B9142F9D1084A5A61042260
:1039C0009A61074ADA6105221A6238BD084B02087B
:1039D000D78C02081C00002018000020C44A0208EE
:1039E000D84A0208064B10B504460360806810B13F
:1039F00003685B6898472046FEF7F6FC204610BD3A
:103A0000BC71020810B50446FFF7ECFF204616F023
:103A100037FD204610BD009B03201A607047002030
:103A200070470020704704207047009B03201A60F5
:103A30007047F0B50546D0E90020801A65D092F9AC
:103A400000401378002C03DB01322A601846F0BDD9
:103A5000C12B3BD9DF2B0FD8012856D0507800F06E
:103A6000C004802C32D100EB8310A0F5425081427B
:103A7000EDD302322A60EAE7EF2B1AD8022844D9A4
:103A8000547804F0C000802820D1E02B01D19F2C75
:103A90001CD9907800F0C006802E17D1A40104EB49
:103AA00003340444A4F5622080388142CFD303322A
:103AB000E0E7F42B0AD8032827D9547804F0C00093
:103AC000802803D1F02B04D18F2C06D84FF0FF3083
:103AD000BDE7F42B01D18F2CF8D8967806F0C00002
:103AE0008028F3D1D07800F0C007802FEED12403D6
:103AF00004EB834404EB86140444A4F17270A0F533
:103B000002508842A3D80432B4E76FF001009EE768
:103B1000F0B50546D0E90020801A65D092F9004042
:103B20001378002C03DB01322A601846F0BDC12B4C
:103B30003BD9DF2B0FD8012856D0507800F0C004B5
:103B4000802C32D100EB8310A0F542508142EDD39E
:103B500002322A60EAE7EF2B1AD8022844D95478B7
:103B600004F0C000802820D1E02B01D19F2C1CD96B
:103B7000907800F0C006802E17D1A40104EB033426
:103B80000444A4F5622080388142CFD30332E0E7B9
:103B9000F42B0AD8032827D9547804F0C0008028D1
:103BA00003D1F02B04D18F2C06D84FF0FF30BDE7A6
:103BB000F42B01D18F2CF8D8967806F0C00080281D
:103BC000F3D1D07800F0C007802FEED1240304EBAE
:103BD000834404EB86140444A4F17270A0F50250EF
:103BE0008842A3D80432B4E76FF001009EE77F2932
:103BF00008D8D0E900329A4242D05A1C02601970AB
:103C000001207047B1F5006F10D2D0E90032D21A0E
:103C1000012A35D95A1C02608A09403A1A70036891
:103C200001F03F015A1C02608039E8E7B1F5803F9E
:103C300011D2D0E90032D21A022A21D95A1C0260CC
:103C40000A0B203A1A700268531C0360C1F38513F3
:103C5000803B1370E3E7B1F5881F11D2D0E9003241
:103C6000D21A032A0CD95A1C02608A0C103A1A7014
:103C70000268531C0360C1F30533803B1370E2E715
:103C8000002070477F2910B508D8D0E900329A4249
:103C900047D05A1C02601970012010BDB1F5006FA9
:103CA0000FD2D0E90032D21A012A3AD98C091A4629
:103CB000403C02F8024B01F03F018039026059702C
:103CC000EAE7B1F5803F12D2D0E90032D21A022AD7
:103CD00027D90A0B203A1A70C1F38512803A01F0F5
:103CE0003F015A708039DA1C02609970D4E7B1F54F
:103CF000881F16D2D0E90032D21A032A11D98A0CB1
:103D0000103A1A70C1F30532803A5A70C1F3851225
:103D1000803A01F03F019A7080391A1D0260D97013
:103D2000BAE70020B9E7B1F5803F10B5D0E900430C
:103D30000BD2A34222D0D30789B201D449BA89B2A7
:103D4000A31C03602180012010BD1B1B022B15D971
:103D50008B0AC1F30901A3F52153A1F5105112F00B
:103D600001029BB289B201D15BBA9BB223800AB92E
:103D700049BA89B2231D03606180E4E70020E3E7CC
:103D800073B51E46079B0093089B01931446A642F9
:103D9000254607D10020069B009A1D60099B1A60EA
:103DA00002B070BD2168B1F5881F05F1040406D288
:103DB0006846FFF767FF0028E9D10120EBE7022002
:103DC000E9E70000F0B585B0CDE900230C9E144F63
:103DD0001C460B9BCDE90236009D029BAC421DD0D8
:103DE0009E421BD039466846FFF792FE831C01466F
:103DF00009D0B1F5881F0FD2012202A8FFF793FF67
:103E00000028E9D1009501200A9B009A1A600D9BB9
:103E1000029A1A6005B0F0BD0220F5E70020F3E732
:103E2000FFFF10008B070CD5D0E90032D21A022A0E
:103E300009D9064A1188927819809A700368033369
:103E40000360012070470020704700BF104B02083C
:103E50002DE9F0410E46044619463046069D1746A8
:103E6000FFF7E0FF30BB0120BDE8F0811188A1F52C
:103E70005840B0F5806F23D2012D29D09B1A022B18
:103E80001CD95388A3F55C42B2F5806F20D2A3F110
:103E90005773A3F5773303EB81214FF002088F426C
:103EA00016D33046FFF7A3FE0028DCD0236803EBCF
:103EB00048032360D4E900239A42D7D10020D3E7F6
:103EC000A1F55C43B3F5806F02D34FF00108E6E73C
:103ED0000220C9E77FB5CDE90223099B04930A9B21
:103EE000059300230093074A04A902A8FFF7B0FF37
:103EF000089B029A1A600B9B049A1A6007B05DF83F
:103F000004FB00BFFFFF100070B50D4604461946C4
:103F100028461646FFF786FF60B9012070BD196874
:103F20008E420DD32846FFF762FE0028F5D02368A5
:103F300004332360D4E900329342F0D10020EDE74E
:103F40000220EBE71FB5CDE90023079B0293089BF6
:103F50000393074A002302A96846FFF7D5FF069B93
:103F6000009A1A60099B029A1A6005B05DF804FB7A
:103F7000FFFF100038B54B0704460CD5D0E90053BD
:103F80005B1B022B07D904490322284618F072F95B
:103F900008B90335256038BDE04B0208F8B50D4679
:103FA000194604461646FFF7E5FFD4E900329A4267
:103FB00013D0D5E90073BB4201D10120F8BD3146D1
:103FC0002046FFF736FD831CF7D0864203D33B1D06
:103FD0002B603860E9E70220F0E70020EEE7000000
:103FE0001FB5CDE90023079B0293089B0393074A63
:103FF000002302A96846FFF7D1FF069B009A1A60CA
:10400000099B029A1A6005B05DF804FBFFFF1000DF
:1040100037B5CDE9000168469DF8181014461D46D5
:10402000FFF7A8FF002044B1A84204F1FF3404D8F0
:1040300029466846FFF7FDFCF5E7009803B030BD60
:1040400013B51446194600230093049A034B2046E7
:10405000FFF7DEFF001B02B010BD00BFFFFF100026
:104060002DE9F8430D461946044616461F46FFF74C
:1040700081FFD4E90089C8451DD0D5E900329A42B4
:1040800019D031462046FFF7D4FC831C014604D1E9
:1040900008980130C0B2BDE8F8838E4209D33A4691
:1040A0002846FFF740FE0028E3D1C4E9008901203B
:1040B000F1E70220EFE70020EDE700007FB5CDE952
:1040C0000223099B04930A9B059300230093074A4C
:1040D000012304A902A8FFF7C3FF089B029A1A60F4
:1040E0000B9B049A1A6007B05DF804FBFFFF1000F9
:1040F000F7B5CDE900019DF82010684616461C462C
:10410000FFF738FF00256F1CB7420CD311D14FF6D3
:10411000FF734FF6FE718C4294BF214619466846E4
:10412000FFF787FC05E021466846FFF782FCA042C6
:1041300002D9009803B0F0BDB0F5803F28BF3D46DE
:104140000135E0E713B51446194600230093049A9D
:10415000034B2046FFF7CCFF001B02B010BD00BF91
:10416000FFFF100073B51D46079B0093089B01934A
:104170001446A54207D10020069B009A1C60099BAB
:104180001A6002B070BD2188A1F55843B3F5806F65
:1041900015D22B1B022BEED96288A2F55C43B3F536
:1041A000806F16D2A2F15772A2F5773202EB81210D
:1041B00002266846FFF766FD40B90120DCE7A1F55D
:1041C0005C43B3F5806F04D30126F2E704EB4604A9
:1041D000CFE70220D0E7000073B5DDE90745CDE960
:1041E00000230F491E46009B9E4216D0A54207D1D0
:1041F0000120069B009A1A60099B1C6002B070BDEA
:104200006846FFF785FC831CF2D0B0F5881F02D208
:1042100044F8040BE7E70220EBE70020E9E700BFE2
:10422000FFFF100037B5CDE90023069D084914466D
:10423000002045B1B0F5881F05F1FF3503D268466F
:10424000FFF766FCF5E70098001B03B030BD00BF28
:10425000FFFF1000F7B5CDE90023089E0E49154673
:104260000024671CBE4206D80BD14FF6FF7168468A
:10427000FFF74EFC05E06846FFF74AFCB0F5881FE3
:1042800003D30098401B03B0F0BDB0F5803F28BFBA
:104290003C460134E5E700BFFFFF100010B5034BBB
:1042A00003600446FEF7A0F8204610BDBC4B020890
:1042B00010B50446FFF7F2FF204616F0E1F820465D
:1042C00010BD000010B5034B03600446FEF78CF8E8
:1042D000204610BD384B020810B50446FFF7F2FF28
:1042E000204616F0CDF8204610BD000010B5034B57
:1042F00003600446FEF778F8204610BD644B0208C0
:1043000010B50446FFF7F2FF204616F0B9F8204634
:1043100010BD000010B5034B03600446FEF764F8BF
:10432000204610BD904B020810B50446FFF7F2FF7F
:10433000204616F0A5F8204610BD00002DE9F04FEC
:1043400089B00B6801934B68A94F02938B68039364
:10435000A84B3B600125019B7D6004460E46BB6077
:1043600000213846FFF788FA7B68D4F80480DFF82C
:1043700018B3DFF818A32B447B609F4B1846FEF759
:10438000D5F848F820709D4F9D4A7D603A60FEF751
:104390004DF87A68D4F80480B8602A447A60994865
:1043A000FEF7C4F848F82070974F984A029B3A608D
:1043B0000022BB6011467D603846FFF709F87A6835
:1043C000D4F804802A447A605846FEF7AFF848F8DB
:1043D00020708F4F8F4A039B3A600022BB601146CA
:1043E0007D603846FEF7B0FF7A68D4F804802A442E
:1043F0007A605046FEF79AF848F82070DFF890820D
:10440000854AD4F80490C8F800200227C8F8047040
:104410008248FEF78BF849F82080DFF87882804ADE
:10442000D4F80490C8F80020C8F804707D48FEF75E
:104430007DF849F82080DFF860827B4AD4F8049048
:10444000C8F80020C8F804707848FEF76FF849F8FB
:104450002080DFF84882294640460AF0E9F9D8F87A
:104460000420D4F8049072482A44C8F80420FEF7C7
:104470005DF849F82080F368049333690593736904
:104480006C4E6D4A0693049BB360002175603260E8
:104490003046FFF759FA7268DFF80492D4F80480C6
:1044A0002A4472604846FEF741F848F82060634E9F
:1044B000634A75603260FDF7B9FF7268D4F8048012
:1044C000B0602A4472605F48FEF730F848F8206018
:1044D0005D4E5E4A059B32600022B36075601146F6
:1044E0003046FFF735F87268DFF8B88161680791E8
:1044F0002A4472604046FEF719F80799544A41F879
:104500002060544E069B32600022B36075601146F5
:104510003046FEF7D5FF7268616807912A447260E1
:104520004D4A1046FEF702F8079941F820604B4EBD
:104530004B4931604B48616877600791FDF7F6FFA2
:10454000079941F82060484E484931604848616801
:1045500077600791FDF7EAFF079941F82060454E23
:10456000454931604548616877600791FDF7DEFF96
:10457000079941F82060424E2946304610F0CEFCA3
:10458000716865683F4801317160FDF7CFFF1A4BD4
:1045900045F820601846E568FDF7C8FF019B45F81F
:1045A00020305846E568FDF7C1FF029B45F82030F2
:1045B0005046E568FDF7BAFF039B45F820304846B2
:1045C000E568FDF7B3FF049B45F820304046E568F9
:1045D000FDF7ACFF204A059B45F820301046E46803
:1045E000FDF7A4FF069B44F8203009B0BDE8F08F2A
:1045F0000C1C0020C46902088C1D0020841C0020B3
:10460000A8690208781D0020541C0020A86A02082E
:10461000601C0020746A0208246B02089C1D0020A4
:104620003C6B0208981D0020686B0208801D00206A
:104630007C1D0020181C0020BC710208901C00206A
:1046400060710208D81D00206C1C0020A0720208B6
:104650006C720208781C0020F01D00203C1C002019
:104660001C730208FC1D00204C1C0020347302083F
:10467000F81D00202C1C002060730208E01D0020A3
:10468000FC1B0020DC1D0020941D0020901D00203C
:10469000341C0020441C0020241C0020EC1B0020A3
:1046A000EC1D0020F41D002001F0BCBD02F058B943
:1046B000F8B50B6853F80C5C0746681C0E4615F0FD
:1046C0006CFF0023044601462A46304601F0E2FC16
:1046D000002363553C602846F8BDF8B50B6853F8D5
:1046E0000C5C6FF060426B1C9342074634BF98002D
:1046F0004FF0FF300E4615F050FF002304460146F0
:104700002A46304602F072F8002344F825303C6017
:104710002846F8BD13B5049CCDE9003413460A467B
:10472000C1684FF0000005F0C4FD02B010BD30B507
:104730008BB00D460AA901E90C0079230693129B60
:104740000593119B0493109B03930EAA044692E8D1
:10475000030001AB83E80300099B00932046089BFC
:10476000AA684FF0000105F04CFF20460BB030BDA9
:1047700030B58BB00D460AA901E90C006D230693F4
:10478000129B0593119B0493109B03930EAA04465E
:1047900092E8030001AB83E80300099B00932046E5
:1047A000089BAA684FF0000105F02BFF20460BB0D4
:1047B00030BD30B58BB00D460AA901E90C00772356
:1047C0000693129B0593119B0493109B03930EAACF
:1047D000044692E8030001AB83E80300099B0093C1
:1047E0002046089BAA684FF0000105F00AFF20460A
:1047F0000BB030BD30B58BB00D460AA901E90C00F5
:1048000064230693129B0593119B0493109B0393BF
:104810000EAA044692E8030001AB83E80300099B5B
:1048200000932046089BAA684FF0000105F0E9FEBE
:1048300020460BB030BD30B58BB00D460AA901E95A
:104840000C0074230693129B0593119B0493109BF9
:1048500003930EAA044692E8030001AB83E8030029
:10486000099B00932046089BAA684FF0000105F0C1
:10487000C8FE20460BB030BD81684FF0000005F047
:10488000BABEF0B591B00AAC84E80C0000230793DF
:104890000D930EAB06930DAB0593199B04939DF8F6
:1048A0006030039316AA0F46054692E8030001AB59
:1048B00083E803000B9B009308AE0A9BBA684FF095
:1048C0000001304606F08FFA96E803000D9B84E85D
:1048D00003005BB9DDE90E011B9BC3E9000194E80D
:1048E000030085E80300284611B0F0BD1A9A136052
:1048F000F5E710B588B00DF1200C0CE90C00002391
:1049000004939DF8303003930B9B02939DF828305D
:104910000193079B009313468A684FF000010446F9
:1049200006F078F9204608B010BD0A4601694FF03C
:10493000000005F058BE07B50968009251F80C3C1C
:104940000A4601694FF0000005F021FE03B05DF852
:1049500004FB13B5049CCDE9003413460A46C16834
:104960004FF0000005F0B0FC02B010BD30B58BB0C8
:104970000D460AA901E90C0079230693129B0593C1
:10498000119B0493109B03930EAA044692E8030024
:1049900001AB83E80300099B00932046089BAA68AB
:1049A0004FF0000105F087FE20460BB030BD30B55A
:1049B0008BB00D460AA901E90C006D230693129BEA
:1049C0000593119B0493109B03930EAA044692E84F
:1049D000030001AB83E80300099B00932046089B7A
:1049E000AA684FF0000105F066FE20460BB030BD0E
:1049F00030B58BB00D460AA901E90C007723069368
:104A0000129B0593119B0493109B03930EAA0446DB
:104A100092E8030001AB83E80300099B0093204662
:104A2000089BAA684FF0000105F045FE20460BB038
:104A300030BD30B58BB00D460AA901E90C006423E6
:104A40000693129B0593119B0493109B03930EAA4C
:104A5000044692E8030001AB83E80300099B00933E
:104A60002046089BAA684FF0000105F024FE20466E
:104A70000BB030BD30B58BB00D460AA901E90C0072
:104A800074230693129B0593119B0493109B03932D
:104A90000EAA044692E8030001AB83E80300099BD9
:104AA00000932046089BAA684FF0000105F003FE22
:104AB00020460BB030BD81684FF0000005F09EBD70
:104AC000F0B591B00AAC84E80C00002307930D9375
:104AD0000EAB06930DAB0593199B04939DF86030C4
:104AE000039316AA0F46054692E8030001AB83E83C
:104AF00003000B9B009308AE0A9BBA684FF00001BD
:104B0000304606F00CFB96E803000D9B84E803009A
:104B10005BB9DDE90E011B9BC3E9000194E80300CA
:104B200085E80300284611B0F0BD1A9A1360F5E736
:104B300010B588B00DF1200C0CE90C000023049393
:104B40000C9B03930B9B02939DF828300193079BCA
:104B5000009313468A684FF00001044606F0F6F908
:104B6000204608B010BD0A4601694FF0000005F06C
:104B70003EBD07B50968009251F80C3C0A46016930
:104B80004FF0000005F019FD03B05DF804FB0000D4
:104B900088422DE9F04104460D4618D0A0B10F1A05
:104BA000BF100021384601F05FFE00F10C080646F8
:104BB000214640462A4601F012FE3946304601F0B1
:104BC00047FE4046BDE8F081024808F07EFFDFF86E
:104BD0000880F6E76C4E0208B81C00202DE9F84367
:104BE000154601EB0509494507460C461A4617D0FC
:104BF00099B10021284601F097FA00F10C08064609
:104C0000214640464A4601F040FA2946304601F026
:104C10007FFAC7F80080BDE8F883034808F055FF25
:104C2000DFF80880F5E700BF6C4E0208A81C0020E2
:104C300010B50446006843685A1E012B426002D139
:104C400003685B689847204610BD000010B5074B0D
:104C50000360036900220446DA600C30FFF7E8FFC6
:104C60002046FEF757FE204610BD00BFE454020860
:104C700010B50446FFF7EAFF204615F001FC204678
:104C800010BD000010B5084B036003690022044604
:104C9000DA609A611A629A620C30FFF7C9FF204607
:104CA000FEF7DAFB204610BD1056020810B5044688
:104CB000FFF7E8FF204615F0E3FB204610BD00009B
:104CC00010B5084B0360036900220446DA609A615C
:104CD0001A629A620C30FFF7ABFF2046FEF7D6FB54
:104CE000204610BDDC55020810B50446FFF7E8FF6A
:104CF000204615F0C5FB204610BD000010B5054B41
:104D0000044640F8103BFFF793FF204609F018FADD
:104D1000204610BDAC54020810B50446FFF7EEFF64
:104D2000204615F0ADFB204610BD000010B5074B26
:104D30000360036900220446DA600C30FFF778FF55
:104D40002046FEF74FFE204610BD00BF0855020862
:104D500010B50446FFF7EAFF204615F091FB204608
:104D600010BD000010B5084B036003690022044623
:104D7000DA601A629A621A630C30FFF759FF204614
:104D8000FEF72EFC204610BD7856020810B50446EA
:104D9000FFF7E8FF204615F073FB204610BD00002A
:104DA00010B5084B0360036900220446DA601A62FA
:104DB0009A621A630C30FFF73BFF2046FEF72AFC8D
:104DC000204610BD4456020810B50446FFF7E8FF20
:104DD000204615F055FB204610BD000010B5054BD0
:104DE000044640F8103BFFF723FF20460FF01CFD60
:104DF000204610BDC854020810B50446FFF7EEFF68
:104E0000204615F03DFB204610BD000010B5054BB7
:104E1000044640F80C3BFFF70BFF204609F0A8F9C9
:104E2000204610BD7454020810B50446FFF7EEFF8B
:104E3000204615F025FB204610BD000010B5054B9F
:104E4000044640F8083BFFF7F3FE204609F006F958
:104E5000204610BD7C55020810B50446FFF7EEFF52
:104E6000204615F00DFB204610BD000010B5054B87
:104E7000044640F8083BFFF7DBFE204609F0F8F84F
:104E8000204610BDAC55020810B50446FFF7EEFFF2
:104E9000204615F0F5FA204610BD000010B5054B70
:104EA000044640F80C3BFFF7C3FE20460FF0D4FC4D
:104EB000204610BD9054020810B50446FFF7EEFFDF
:104EC000204615F0DDFA204610BD000010B5054B58
:104ED000044640F8083BFFF7ABFE20460FF032FCDB
:104EE000204610BD9455020810B50446FFF7EEFFAA
:104EF000204615F0C5FA204610BD000010B5054B40
:104F0000044640F8083BFFF793FE20460FF024FCD0
:104F1000204610BDC455020810B50446FFF7EEFF49
:104F2000204615F0ADFA204610BD000010B5054B27
:104F3000044640F8083BFFF77BFE204609F0B6F830
:104F4000204610BD2C55020810B50446FFF7EEFFB1
:104F5000204615F095FA204610BD000010B5054B0F
:104F6000044640F8083BFFF763FE20460FF012FCB2
:104F7000204610BD5455020810B50446FFF7EEFF59
:104F8000204615F07DFA204610BD836910B5044611
:104F900003B19847204610BD37B5084614460D4664
:104FA00009F010FB84F82400284609F00EFB0023CA
:104FB000A3606361E361012384F8643084F8250011
:104FC000294601A809F004FB01A904F10800FFF734
:104FD0006FFBE06001A801F025F9294601A809F05E
:104FE000FEFA01A904F11400FFF762FBA06101A819
:104FF00001F018F9294601A809F0F8FA01A904F10D
:105000001C00FFF755FB206201A801F00BF903B06B
:1050100030BD37B5084614460D460FF049FE6062B4
:1050200028460FF048FE0023A3606361E36101237B
:1050300084F82431A062294601A80FF03FFE01A99F
:1050400004F10800FFF734FBE06001A801F0EAF882
:10505000294601A80FF039FE01A904F11400FFF759
:105060003CFBA06101A801F07BFC294601A80FF0E0
:1050700033FE01A904F11C00FFF72FFB206201A8F9
:1050800001F06EFC03B030BD10B4084611461A465C
:10509000DDE9013401945DF8044B09F0EBBB10B479
:1050A000084611461A46DDE9013401945DF8044BC7
:1050B0000FF056BF37B5084614460D4609F03FFAC3
:1050C0006074284609F03EFAA074284609F059FA9F
:1050D0000023A3606361E3616362012384F84330CA
:1050E000E062294601A809F030FA01A904F108009C
:1050F000FFF7DEFAE06001A801F094F8294601A864
:1051000009F02AFA01A904F11400FFF7D1FAA0610D
:1051100001A801F087F8294601A809F024FA01A99D
:1051200004F11C00FFF7C4FA206201A801F07AF82C
:10513000294601A809F01EFA01A904F12400FFF78D
:10514000B7FAA06201A801F06DF8284609F01CFA30
:105150002063284609F01DFA606303B030BD37B5FF
:10516000084614460D4609F0BBF96074284609F05C
:10517000BAF9A074284609F0D5F90023A360636149
:10518000E3616362012384F84330E062294601A8A9
:1051900009F0ACF901A904F10800FFF789FAE06011
:1051A00001A801F03FF8294601A809F0A6F901A9D4
:1051B00004F11400FFF77CFAA06101A801F032F8B5
:1051C000294601A809F0A0F901A904F11C00FFF784
:1051D0006FFA206201A801F025F8294601A809F01C
:1051E0009AF901A904F12400FFF762FAA06201A86C
:1051F00001F018F8284609F098F92063284609F0CC
:1052000099F9606303B030BD37B5084614460D46C2
:105210000FF009FD606128460FF008FDA0612846E7
:105220000FF023FD0023A360E3616362E3620123C7
:1052300084F86C306063294601A80FF0FAFC01A9DC
:1052400004F10800FFF734FAE06001A800F0EAFF7B
:10525000294601A80FF0F4FC01A904F11C00FFF796
:105260003CFA206201A801F07BFB294601A80FF05F
:10527000EEFC01A904F12400FFF72FFAA06201A8B7
:1052800001F06EFB294601A80FF0E8FC01A904F12A
:105290002C00FFF722FA206301A801F061FB2846E9
:1052A0000FF0E6FCA06328460FF0E7FCE06303B0D4
:1052B00030BD37B5084614460D460FF085FC6061D9
:1052C00028460FF084FCA06128460FF09FFC0023C5
:1052D000A360E3616362E362012384F86C3060637E
:1052E000294601A80FF076FC01A904F10800FFF798
:1052F000DFF9E06001A800F095FF294601A80FF052
:1053000070FC01A904F11C00FFF7E7F9206201A875
:1053100001F026FB294601A80FF06AFC01A904F15F
:105320002400FFF7DAF9A06201A801F019FB294671
:1053300001A80FF064FC01A904F12C00FFF7CDF9DE
:10534000206301A801F00CFB28460FF062FCA0636B
:1053500028460FF063FCE06303B030BD13B50C4684
:1053600001A811461A466B46FFF738FC049A01A9BA
:10537000204609F06DFA044601A800F053FF2046CC
:1053800002B010BD13B50C4601A811461A466B4673
:10539000FFF724FC049A01A920460FF0CFFD044634
:1053A00001A800F03FFF204602B010BD084611469C
:1053B00009F05DBA084611460FF0CFBD084609F066
:1053C000A8B908460FF01BBD82B0F0B587B00546FE
:1053D0009DF850700D93742F16461398DDE9112136
:1053E0000FAC0DAB1ED00ED8642F2DD0CDE903101D
:1053F000029294E803008DE8030031460CCB284666
:1054000009F0DEF91AE0772F2BD0CDE903100292D4
:1054100094E803008DE8030031460CCB284609F0E0
:10542000EBF90BE0CDE90310029294E803008DE85C
:10543000030031460CCB284609F06EF9284607B028
:10544000BDE8F04002B07047CDE90310029294E845
:1054500003008DE8030031460CCB284609F078F9AB
:10546000ECE7CDE90310029294E803008DE8030015
:1054700031460CCB284609F087F9DFE782B0F0B55A
:1054800087B005469DF850700D93742F16461398FB
:10549000DDE911210FAC0DAB1ED00ED8642F2DD03D
:1054A000CDE90310029294E803008DE80300314631
:1054B0000CCB28460FF0FAFC1AE0772F2BD0CDE961
:1054C0000310029294E803008DE8030031460CCBF0
:1054D00028460FF007FD0BE0CDE90310029294E897
:1054E00003008DE8030031460CCB28460FF08AFC00
:1054F000284607B0BDE8F04002B07047CDE9031080
:10550000029294E803008DE8030031460CCB284654
:105510000FF094FCECE7CDE90310029294E803004D
:105520008DE8030031460CCB28460FF0A3FCDFE7E3
:10553000F8B5AF4A0C466FF00103AE49054614F0CA
:10554000A5FF064610B104682046F8BDAA4B9C4250
:1055500029D1682015F010F8A84B46600746C0E92D
:105560000266C0E90566C0E90766036006748684C2
:1055700080F86460142014F0FFFFA14B46600360C4
:10558000876031460446FEF777F96B68E5600133C2
:105590006B609C4B236027613A4629464FF0000020
:1055A00004F00DFED0E7984B9C4210D1102014F06F
:1055B000E3FF964B036046600446FCF737FF6B68D9
:1055C000C4E9020501336B60914B2360BCE7914B4A
:1055D0009C420AD10C2014F0CFFF6B6801336B6042
:1055E000C0E901658C4B0446EFE78C4B9C420AD125
:1055F0000C2014F0C1FF6B6801336B60C0E90165DA
:10560000874B0446E1E7874B9C420AD10C2014F0FB
:10561000B3FF6B6801336B60C0E90165824B0446E0
:10562000D3E7824B9C422FD1442014F0A5FF804B3E
:1056300006820746C0E90036C0E90266C0E9056691
:10564000C0E90766C0E90966C0E90B66867446636F
:1056500080F84360142014F08FFF764B466003609F
:105660008760324631460446FDF76EFE6B68E560A2
:1056700001336B60704B236027613A4629464FF037
:10568000000004F02CFE5FE76C4B9C422FD14420BD
:1056900014F072FF6A4B06820746C0E90036C0E983
:1056A0000266C0E90566C0E90766C0E90966C0E9A7
:1056B0000B668674466380F84360142014F05CFF28
:1056C000604B466003608760324631460446FDF712
:1056D0007FFE6B68E56001336B605B4B2360276185
:1056E0003A4629464FF0000004F04FFE2CE7574B96
:1056F0009C420CD1142014F03FFF3146044609F0BF
:1057000097F86B68256101336B60514B5DE7514B36
:105710009C422CD14FF4947014F02EFF00274E4B76
:1057200047600646C0E90277C0E90577C0E9077718
:10573000C0E909770360077480F82471142014F01D
:105740001BFF464B47600360866039460446FEF700
:10575000FBF86B68E56001336B60414B23602661A9
:10576000324629464FF0000004F067FDECE63D4B61
:105770009C4210D1102014F0FFFE002343603A4BEE
:1057800003600446FCF752FE6B6801336B60C4E9AA
:105790000205364B19E7364B9C420BD10C2014F016
:1057A000EBFE0023C0E901356B6801336B600446F2
:1057B000304B0AE7304B9C420BD10C2014F0DCFE3E
:1057C0000023C0E901356B6801336B6004462B4B45
:1057D000FBE62B4B9C4257D10C2014F0CDFE00234E
:1057E000C0E901356B6801336B600446254BECE67C
:1057F000F84E0208D44902088C1D0020F84A02081D
:10580000C4690208E4540208781D0020A86902084F
:1058100074540208801D00202C5502089C1D002095
:105820007C550208981D0020AC550208901D0020F0
:10583000804A0208746A020810560208941D00206B
:10584000904A0208A86A0208DC5502087C1D002064
:10585000AC540208EC1D0020084B0208BC71020881
:1058600008550208D81D00206071020890540208F3
:10587000E01D002054550208FC1D0020945502082C
:10588000F81D0020C45502083E4B9C4231D17020C7
:1058900014F072FE00273C4B47600646C0E90277D1
:1058A000C0E90577C0E90777C0E90977C0E90B7758
:1058B000C0E90D7703600774C76380F86C7014202B
:1058C00014F05AFE314B4760036086603A46394611
:1058D0000446FDF7F5FD6B68E56001336B602C4B0A
:1058E00023602661324629464FF0000004F0A3FDF4
:1058F0002AE6284B9C4231D1702014F03DFE00274F
:10590000254B47600646C0E90277C0E90577C0E944
:105910000777C0E90977C0E90B77C0E90D77036025
:105920000774C76380F86C70142014F025FE1B4BBD
:105930004760036086603A4639460446FDF708FE34
:105940006B68E56001336B60154B2360266132465E
:1059500029464FF0000004F0C4FDF5E5114B9C42D0
:105960000CD1142014F008FE002104460FF0D6FAE2
:105970006B68256101336B600B4B26E60B4808F022
:10598000A4F800BFF01D0020A04A02086C720208B3
:1059900078560208F41D0020B04A0208A0720208DE
:1059A00044560208DC1D0020C8540208964E020826
:1059B0008B6913B5044613B9054808F086F8D1E998
:1059C000001201ABFFF70AF9204602B010BD00BF7C
:1059D000C34E020882B02DE9F04786B00446149900
:1059E0009DF84480DDF848909DF84CA00F93154633
:1059F0000FAEB1B105AF3846FFF7DAFFCDE902A728
:105A0000CDE90089204696E80C00294608F01BFDE8
:105A1000384600F007FC204606B0BDE8F04702B06B
:105A20007047CDE9019ACDF8008096E80C00294630
:105A300008F0F3FCEFE710B58AB0044600930020AD
:105A40001346C968099003AA05F0BCF903A92046CA
:105A5000FFF7AEFF03A8FFF798FA20460AB010BD83
:105A6000F0B597B00AAC84E80C000FAE0023CDE986
:105A7000063615930D930DAB05931F9B04939DF86C
:105A8000783003931CAA8C46054692E8030001ABCC
:105A900083E803000B9B009308AF0A9BDCF8082007
:105AA0004FF00001384605F09EF997E803000D9B82
:105AB00084E80300A3B931460EA8FFF779FF2198C7
:105AC0000EA900F001FB0EA800F0ACFB94E8030067
:105AD00085E803003046FFF758FA284617B0F0BDB6
