:020000040800F2
:10000000000002200D220008350C0008370C000803
:10001000390C00083B0C00083D0C000800000000F3
:10002000000000000000000000000000011F0008A8
:100030003F0C000800000000311F00089F1E000850
:100040005D2200085D2200085D2200085D22000894
:100050005D2200085D2200085D2200085D22000884
:100060005D2200085D2200085D2200085D22000874
:100070005D2200085D2200085D2200085D22000864
:100080005D2200085D2200085D2200085D22000854
:100090005D2200085D2200085D2200085D22000844
:1000A0005D220008410C00085D2200085D22000866
:1000B0005D2200085D2200085D2200085D22000824
:1000C0005D2200085D2200085D2200085D22000814
:1000D0005D2200085D2200085D2200085D22000804
:1000E0005D2200085D220008000000005D2200087B
:1000F0005D2200085D2200085D2200085D220008E4
:100100005D2200085D2200085D2200085D220008D3
:100110005D2200085D2200085D2200085D220008C3
:100120005D2200085D2200085D2200085D220008B3
:100130005D2200085D2200085D2200085D220008A3
:1001400000000000000000000000000000000000AF
:100150005D2200085D2200085D2200085D22000883
:100160005D2200085D2200085D2200085D22000873
:100170005D2200085D2200085D22000800000000EA
:100180005D2200085D2200085D2200085D22000853
:100190005D2200085D2200085D2200085D22000843
:1001A0005D2200085D2200085D2200085D22000833
:1001B0005D2200085D2200085D2200085D22000823
:1001C0005D2200085D2200085D2200085D22000813
:1001D0005D2200085D2200085D2200085D22000803
:1001E0005D2200085D2200085D2200085D220008F3
:1001F0005D2200085D2200085D2200085D220008E3
:100200005D2200085D2200085D2200085D220008D2
:100210005D2200085D2200085D2200085D220008C2
:100220005D2200085D2200085D2200080000000039
:100230005D2200085D220008000000005D22000829
:100240005D2200085D2200085D2200085D22000892
:100250005D2200085D2200085D2200085D22000882
:100260005D2200085D2200085D2200085D22000872
:100270005D2200085D2200085D22000800000000E9
:100280005D2200085D2200085D22000800000000D9
:08029000000000005D220008DF
:1002A00001F0FF01102A2BDB10F0070F08D010F827
:1002B000013B013A8B422DD010F0070F42B3F6D12B
:1002C000F0B441EA012141EA014122F007047FF044
:1002D00000070023F0E80256083C85EA010586EA9B
:1002E000010685FA47F5A3FA87F586FA47F6A5FAD7
:1002F00087F68EB9EED1F0BC01F0FF0102F00702E3
:1003000032B110F8013B013A83EA010313B1F8D18D
:100310000020704701387047002D06BF354603386E
:10032000073815F0010F07D1013015F4807F02BFA7
:10033000013015F4C03F0130F0BC0138704700BFF8
:1003400010F8012B11F8013B012A28BF9A42F7D07F
:10035000D01A7047034613F8012B002AFBD1181A54
:100360000138704781F0004102E000BF83F0004394
:1003700030B54FEA41044FEA430594EA050F08BF40
:1003800090EA020F1FBF54EA000C55EA020C7FEA04
:10039000645C7FEA655C00F0E2804FEA5454D4EB81
:1003A0005555B8BF6D420CDD2C4480EA020281EA4B
:1003B000030382EA000083EA010180EA020281EA83
:1003C0000303362D88BF30BD11F0004F4FEA0131D5
:1003D0004FF4801C4CEA113102D0404261EB4101E4
:1003E00013F0004F4FEA03334CEA133302D052426A
:1003F00063EB430394EA050F00F0A780A4F1010426
:10040000D5F1200E0DDB02FA0EFC22FA05F280185F
:1004100041F1000103FA0EF2801843FA05F3594145
:100420000EE0A5F120050EF1200E012A03FA0EFCC4
:1004300028BF4CF0020C43FA05F3C01851EBE371EE
:1004400001F0004507D54FF0000EDCF1000C7EEB0B
:1004500000006EEB0101B1F5801F1BD3B1F5001F49
:100460000CD349085FEA30004FEA3C0C04F1010468
:100470004FEA445212F5800F80F09A80BCF1004F91
:1004800008BF5FEA500C50F1000041EB045141EA13
:10049000050130BD5FEA4C0C404141EB0101013CDC
:1004A00028BFB1F5801FE9D291F0000F04BF0146CB
:1004B0000020B1FA81F308BF2033A3F10B03B3F19D
:1004C00020020CDA0C3208DD02F1140CC2F10C022D
:1004D00001FA0CF021FA02F10CE002F11402D8BF8B
:1004E000C2F1200C01FA02F120FA0CFCDCBF41EA57
:1004F0000C019040E41AA2BF01EB0451294330BD26
:100500006FEA04041F3C1CDA0C340EDC04F1140402
:10051000C4F1200220FA04F001FA02F340EA0300D9
:1005200021FA04F345EA030130BDC4F10C04C4F11F
:10053000200220FA02F001FA04F340EA03002946FF
:1005400030BD21FA04F0294630BD94F0000F83F449
:10055000801306BF81F480110134013D4EE77FEA2C
:10056000645C18BF7FEA655C29D094EA050F08BF78
:1005700090EA020F05D054EA000C04BF1946104659
:1005800030BD91EA030F1EBF0021002030BD5FEA9D
:10059000545C05D14000494128BF41F0004130BDC5
:1005A00014F580043CBF01F5801130BD01F0004519
:1005B00045F0FE4141F470014FF0000030BD7FEA8C
:1005C000645C1ABF194610467FEA655C1CBF0B4687
:1005D000024650EA013406BF52EA033591EA030F9E
:1005E00041F4002130BD00BF90F0000F04BF002196
:1005F000704730B54FF4806404F132044FF00005C9
:100600004FF0000150E700BF90F0000F04BF002141
:10061000704730B54FF4806404F1320410F00045A7
:1006200048BF40424FF000013EE700BF42004FEAA2
:10063000E2014FEA31014FEA02701FBF12F07F431F
:1006400093F07F4F81F06051704732F07F4208BFD6
:10065000704793F07F4F04BF41F40021704730B5DD
:100660004FF4607401F0004521F000411CE700BF29
:1006700050EA010208BF704730B54FF000050AE0AC
:1006800050EA010208BF704730B511F0004502D5AD
:10069000404261EB41014FF4806404F132045FEAAF
:1006A000915C3FF4D8AE4FF003025FEADC0C18BF58
:1006B00003325FEADC0C18BF033202EBDC02C2F14A
:1006C000200300FA03FC20FA02F001FA03FE40EADC
:1006D0000E0021FA02F11444BDE600BF53B94AB935
:1006E000002908BF00281CBF4FF0FF314FF0FF303A
:1006F00000F0E2B8ADF1080C6DE904CE23F000FA89
:10070000DDF804E0DDE9022304B0704700F13401B4
:1007100091E838009C46A6464CF8045D90E8FF0F2F
:10072000E54600BD90EC210B704700BF80EC210B2B
:10073000704700BF90EC200B704700BF80EC200B8F
:10074000704700BFD0EC200B704700BFC0EC200BFF
:10075000704700BFF0EC0201F0EC0211F0EC022156
:10076000F0EC0231F0EC0241F0EC0251F0EC0261ED
:10077000F0EC0271F0EC0281F0EC0291F0EC02A1DD
:10078000F0EC02B1F0EC02C1F0EC02D1F0EC02E1CD
:10079000F0EC02F1704700BFE0EC0201E0EC021166
:1007A000E0EC0221E0EC0231E0EC0241E0EC02512D
:1007B000E0EC0261E0EC0271E0EC0281E0EC02911D
:1007C000E0EC02A1E0EC02B1E0EC02C1E0EC02D10D
:1007D000E0EC02E1E0EC02F1704700BFB0FC018107
:1007E000B0FC0191B0FC01A1B0FC01B1704700BFA9
:1007F000A0FC0181A0FC0191A0FC01A1A0FC01B121
:10080000704700BFEC4600B52DE900502DE9FF1FF1
:100810004FF000032DE90C0001A923F025FCDDF8C1
:1008200040E012B0704700BFEC4600B52DE9005023
:100830002DE9FF1F4FF000032DE90C0001A923F063
:100840004FFCDDF840E012B0704700BFEC4600B549
:100850002DE900502DE9FF1F4FF000032DE90C009A
:1008600001A923F05FFCDDF840E012B0704700BF43
:10087000EC4600B52DE900502DE9FF1F4FF00003B5
:100880002DE90C0001AB23F023FCDDF840E012B0B1
:10089000704700BFEC4600B52DE900502DE9FF1F61
:1008A0004FF000032DE90C0001AA23F08FFCDDF8C6
:1008B00040E012B0704700BF704700BF0348044BD0
:1008C000834202D0034B03B118477047D80200207F
:1008D000D8020020000000000548064B1B1AD90F63
:1008E00001EBA301491002D0034B03B11847704735
:1008F000D8020020D80200200000000010B5064CED
:10090000237843B9FFF7DAFF044B13B10448AFF380
:1009100000800123237010BDD802002000000000D9
:10092000244B020808B5054B1BB105490548AFF338
:100930000080BDE80840FFF7CFBF00BF0000000007
:10094000DC020020244B020810B584B0002400947F
:1009500001940294039400F07DFA01238DF8003095
:100960008DF8014001941F228DF8082087228DF810
:1009700009208DF80A408DF80B408DF80C308DF869
:100980000D308DF80E408DF80F40684600F080FA6B
:10099000042000F06DFA04B010BD0000012800D062
:1009A00070474FF6FF739942FAD110B5044C2046B8
:1009B00001F094FC034A0449204601F050FC10BDAC
:1009C000F4020020000000204525000808B5026858
:1009D000034B9A4200D008BD00F0CEF9FBE700BF00
:1009E0000000014072B6FEE700B59DB04C22002128
:1009F00009A81BF04FFD2022002101A81BF04AFD91
:100A0000022000F075FA00230093254BDA6A22F0E9
:100A10000102DA62DB6A03F001030093214A936961
:100A200023F4404343F480439361936903F44043C8
:100A30000093009B1B4B9B6913F4005FFAD00223C9
:100A4000099301220C9240220D92129300221392DC
:100A500004221492092215921693179318930C22CC
:100A600019921A934FF440631B9309A800F06AFA95
:100A700090B93F230193032302930023039304932C
:100A80000593069307930893012101A800F08EFEB9
:100A900020B91DB05DF804FBFFF7A4FFFFF7A2FF2C
:100AA000000400580048025830B583B005682C4651
:100AB000436805EB83050CE054F8041B0B4813F066
:100AC00098F820238DF8073001220DF1070113F06B
:100AD00003F8A542F0D10A238DF8073001220DF169
:100AE0000701024812F0F8FF03B030BD740A00207D
:100AF00010B58EB0FFF728FF00F010F9FFF774FF74
:100B000006E0062205AB03EB840300930192EAB9E9
:100B1000114C0DF1140CA646BEE80F00ACE80F0016
:100B2000BEE80F00ACE80F00DEF80030CCF8003073
:100B30000DF1080C04F1240393E807008CE807008A
:100B40000024A31D092BDCD90022DBE76846FFF750
:100B5000ABFF0134F5E700BF404B020808B54FF684
:100B6000FF710120FFF71AFF08BD00207047704792
:100B700000B583B00A4BD3F8F42042F00202C3F868
:100B8000F420D3F8F43003F002030193019B002218
:100B90000F216FF0010000F019F903B05DF804FBBC
:100BA000004402580F2801D90120704710B58AB0BF
:100BB000044600220146192000F008F9192000F02F
:100BC0003BF9174B1C60174BD3F8F02042F00102A1
:100BD000C3F8F020D3F8F03003F001030093009B3A
:100BE00001A902A800F060FF00F04CFF0E4BA3FB30
:100BF00000239B0C013B0D480D4A026040F2E73296
:100C0000C260436000230361836001F015F910B1F5
:100C100001200AB010BD054800F072FFF9E700BFDF
:100C2000100000200044025883DE1B43F80200201D
:100C300000000140FEE7FEE7FEE7FEE7FEE7704743
:100C400008B5024800F0A8FF08BD00BFF802002068
:100C5000274AD2F8883043F47003C2F88830254B15
:100C60001B6803F00F03062B06D8224A136823F0F3
:100C70000F0343F0070313601F4B1A6842F0010291
:100C80001A6000221A6119681C4A0A401A60194B3E
:100C90001B6813F0080F06D0164A136823F00F03E1
:100CA00043F007031360144B00229A61DA611A6261
:100CB000134999621349D962134919635A639963B5
:100CC000DA6319645A64196821F4802119601A667C
:100CD0000E4B1A680E4B1340B3F1005F03D20D4B5D
:100CE0000122C3F808210C4B43F2D2021A6070476C
:100CF00000ED00E000200052004402587FEDF6EACB
:100D0000000202020000FF01800201010010005CED
:100D10000000FFFF008000510040005210B503208A
:100D200000F042F800F048FC0F498B69C3F303233D
:100D30000E4AD35C03F01F03D8408B6903F00F0306
:100D4000D35C03F01F0320FA03F3094A1360094B35
:100D500018600F20FFF726FF10B10124204610BDB8
:100D60000446FFF705FFF9E7004402587C4B0208F0
:100D70000800002004000020034B1B78034A116880
:100D80000B441360704700BF0C0000204403002098
:100D9000014B1868704700BF44030020014B1868DE
:100DA000000C70470010005C0649CB6823F4E06338
:100DB0001B041B0C000200F4E0600343024A1A43C8
:100DC000CA60704700ED00E00000FA0500B5174B5F
:100DD000DB68C3F30223C3F1070CBCF1040F28BF87
:100DE0004FF0040C03F1040EBEF1060F14D9033BBF
:100DF0004FF0FF3E0EFA0CFC21EA0C0199400EFA6E
:100E000003FE22EA0E020A43002807DB1201D2B2D7
:100E1000074B1A545DF804FB0023E9E700F00F00CC
:100E20001201D2B2034B1A54F4E700BF00ED00E008
:100E300000E400E014ED00E0002807DB00F01F02F2
:100E4000400901239340024A42F82030704700BF16
:100E500000E100E0BFF35F8F044B5A6A22F4803256
:100E60005A620022C3F89420704700BF00ED00E0F2
:100E700040F00100054BC3F894005A6A42F48032F6
:100E80005A62BFF34F8FBFF36F8F704700ED00E0E2
:100E90004278164BC3F898200378FBB14368134A95
:100EA000C2F89C30017BC37A1B0643EA0173817A46
:100EB00043EAC143417B43EA8143817B43EA4143A7
:100EC000C17B43EA0143417A43EA0123017A43EAC1
:100ED000410301780B43C2F8A0307047034B002256
:100EE000C3F89C20C3F8A020704700BF00ED00E0CD
:100EF000134BDB6813F0040F07D1114BDB6803F0D1
:100F0000070383421AD00120704710B50C4AD368FA
:100F100023F007030343D360FFF73AFF0446084B6F
:100F20005B6813F4005F07D1FFF732FF001BB0F5D9
:100F30007A7FF4D9012000E0002010BD0020704726
:100F400000480258002800F0188338B504460368AA
:100F500013F0010F25D0944A136903F03803926A05
:100F6000102B15D0182B0FD06368B3F5803F3FD0FE
:100F7000002B53D18C4B1A6822F480321A601A6805
:100F800022F480221A6038E002F00302022AEBD138
:100F9000854B1B6813F4003F03D06368002B00F0FF
:100FA000EE82236813F0020F00F0A1807E4A1369DD
:100FB000926A13F038035AD0182B55D0E368002BEF
:100FC00000F0DE8078490A6822F0190213430B60B2
:100FD000FFF7DEFE0546744B1B6813F0040F40F06C
:100FE000AD80FFF7D5FE401B0228F4D90320CDE2E7
:100FF0006D4A136843F48033136063682BB3FFF7C3
:10100000C7FE0546684B1B6813F4003FC9D1FFF7C4
:10101000BFFE401B6428F5D90320B7E2B3F5A02F2B
:1010200009D0614B1A6822F480321A601A6822F4DF
:1010300080221A60E1E75C4B1A6842F480221A6051
:101040001A6842F480321A60D7E7FFF7A1FE05461E
:10105000554B1B6813F4003FA3D0FFF799FE401BCC
:101060006428F5D9032091E212F0030FA6D14E4B6C
:101070001B6813F0040F03D0E368002B00F081829B
:10108000494A136823F01903E1680B431360FFF723
:101090007FFE0546444B1B6813F0040F06D1FFF793
:1010A00077FE401B0228F5D903206FE2FFF776FE9A
:1010B00041F20303984212D82269402A07D03A49E4
:1010C0004B6823F47C3343EA02334B600FE0364A2B
:1010D000536823F47C3343F40033536007E0324A0F
:1010E000536823F0FE43216943EA01635360236898
:1010F00013F0100F00F088802B4A136903F03803B7
:10110000926A082B56D0182B50D0E369002B00F0C0
:10111000B880254A136843F080031360FFF738FE58
:101120000546214B1B6813F4807F40F08880FFF751
:101130002FFE401B0228F4D9032027E2FFF72EFEE2
:1011400041F20303984212D82269402A07D0164977
:101150004B6823F47C3343EA02334B60C7E7124AFF
:10116000536823F47C3343F400335360BFE70E4AE3
:10117000536823F0FE43216943EA01635360B6E7F5
:10118000094A136823F001031360FFF701FE0546C7
:10119000054B1B6813F0040FA9D0FFF7F9FD401BA6
:1011A0000228F5D90320F1E10044025802F00302BD
:1011B000012AAAD1A14B1B6813F4807F03D0E369F5
:1011C000802B40F0E081FFF7E9FD41F203039842F4
:1011D00012D8226A202A07D098494B6823F0F84396
:1011E00043EA82634B600FE0944A536823F0F8436C
:1011F00043F08043536007E0904AD36823F07C5368
:10120000216A43EA0163D360236813F0080F60D0BA
:101210006369002B49D0894A536F43F00103536738
:10122000FFF7B6FD0546854B5B6F13F0020F50D1FB
:10123000FFF7AEFD401B0228F5D90320A6E1FFF71A
:10124000ADFD41F20303984212D8226A202A07D04A
:101250007A494B6823F0F84343EA82634B60D3E753
:10126000764A536823F0F84343F080435360CBE75A
:10127000724AD36823F07C53216A43EA0163D36046
:10128000C2E76E4A136823F080031360FFF780FD06
:1012900005466A4B1B6813F4807FB5D0FFF778FDD5
:1012A000401B0228F5D9032070E1644A536F23F0F4
:1012B00001035367FFF76CFD0546604B5B6F13F04E
:1012C000020F06D0FFF764FD401B0228F5D903206A
:1012D0005CE1236813F0200F29D0A3699BB1574A22
:1012E000136843F480531360FFF752FD0546534BD8
:1012F0001B6813F4005F1AD1FFF74AFD401B022858
:10130000F5D9032042E14D4A136823F4805313605A
:10131000FFF73EFD0546494B1B6813F4005F06D0FE
:10132000FFF736FD401B0228F5D903202EE1236884
:1013300013F0040F21D1636A002B00F026813F4A8D
:10134000126902F03802182A00F0EE80022B79D0E0
:101350003A4A136823F080731360FFF719FD0446BF
:10136000364B1B6813F0007F00F0DC80FFF710FDA8
:10137000001B0228F4D9032008E1314A136843F422
:1013800080731360FFF704FD05462D4B1B6813F4B3
:10139000807F06D1FFF7FCFC401B6428F5D90320B1
:1013A000F4E0A368012B0AD00BBB244B1A6F22F088
:1013B00001021A671A6F22F004021A6704E01F4A3A
:1013C000136F43F001031367A36833B3FFF7E0FC27
:1013D00005461A4B1B6F13F0020FACD1FFF7D8FC78
:1013E000401B41F288339842F3D90320CEE0052B0D
:1013F00009D0124B1A6F22F001021A671A6F22F0FD
:1014000004021A67E0E70D4B1A6F42F004021A67F4
:101410001A6F42F001021A67D6E7FFF7B9FC0546DA
:10142000064B1B6F13F0020F85D0FFF7B1FC401B7A
:1014300041F288339842F3D90320A7E000440258D0
:1014400000480258594A136823F080731360FFF76D
:101450009FFC0546554B1B6813F0007F06D0FFF735
:1014600097FC401B0228F5D903208FE04F4B996A67
:101470004F4A0A40A16AE06A41EA00110A439A62AF
:10148000226B013AC2F30802616B0139490289B249
:101490000A43A16B0139090401F4FE010A43E16B1F
:1014A0000139090601F0FE410A431A63DA6A22F0A3
:1014B0000102DA62596B3F4A0A40A16C42EAC1025A
:1014C0005A63DA6A22F00C02216C0A43DA62DA6AA1
:1014D00022F00202616C0A43DA62DA6A42F4803274
:1014E000DA62DA6A42F40032DA62DA6A42F48022BC
:1014F000DA62DA6A42F00102DA621A6842F0807255
:101500001A60FFF745FC0446284B1B6813F0007F68
:1015100006D1FFF73DFC001B0228F5D9032035E07A
:10152000002033E0002031E0204A916A106B012B4B
:101530002DD001F00303A26A93422AD1C1F3051111
:10154000E36A994227D1C0F30802236B013B9A4218
:1015500023D1C0F34622636B013B9A421FD1C0F3F3
:101560000642A36B013B9A421BD1C0F30660E36BBA
:10157000013B984217D1002008E00120704701206C
:1015800004E0012002E0012000E0002038BD01203D
:10159000FCE70120FAE70120F8E70120F6E7012047
:1015A000F4E70120F2E70120F0E700BF0044025811
:1015B0000CFCFFFF0700FFFF744B1B6903F03803AF
:1015C000102B00F0DE80182B0FD00BB17048704745
:1015D0006E4B1B6813F0200F00F0D5806B4B1B681F
:1015E000C3F3C1036B48D840704710B4674B9A6A85
:1015F00002F003029C6AC4F30510D96A01F00101EC
:101600005B6BC3F3CC0301FB03F307EE903AF8EEF8
:10161000677A14F47C7F00F09480012A66D0022A55
:1016200000F09280E2B107EE100AF8EE476A9FEDF3
:101630005A6A86EE267A554B1B6BC3F3080306EEF7
:10164000903AF8EE666A9FED556A67EE867A76EE16
:10165000A77AF7EE006A77EEA67A27EE277A61E09E
:101660004A4B1B6813F0200F23D048490A68C2F385
:10167000C102484BD34007EE103AF8EE476A07EE36
:10168000100AB8EE476A86EE867A0B6BC3F308033E
:1016900006EE903AF8EE666A9FED406A67EE867A4B
:1016A00076EEA77AF7EE006A77EEA67A27EE277A2B
:1016B00038E007EE100AF8EE476A9FED396A86EEC9
:1016C000267A324B1B6BC3F3080306EE903AF8EE12
:1016D000666A9FED326A67EE867A76EEA77AF7EE53
:1016E000006A77EEA67A27EE277A1BE007EE100A4B
:1016F000F8EE476A9FED286A86EE267A234B1B6B2D
:10170000C3F3080306EE903AF8EE666A9FED236A8B
:1017100067EE867A76EEA77AF7EE006A77EEA67A1B
:1017200027EE277A194B1B6BC3F34623013307EED1
:10173000903AF8EE677AC7EE276AFCEEE67A17EE83
:10174000900A5DF8044B704707EE100AF8EE476AFE
:101750009FED146A86EE267A0C4B1B6BC3F30803CD
:1017600006EE903AF8EE666A9FED0C6A67EE867AAE
:1017700076EEA77AF7EE006A77EEA67A27EE277A5A
:10178000D0E7094870470348704700BF004402583B
:1017900000093D000090D0030024744A0000003985
:1017A0000024744C20BCBE4B40787D01002800F022
:1017B000328170B50D4604469B4B1B6803F00F0346
:1017C0008B420BD2984A136823F00F030B4313602C
:1017D000136803F00F038B4240F01F81236813F05E
:1017E000040F0CD02269914B9B6903F070039A425D
:1017F00005D98E498B6923F070031A438A612368E7
:1018000013F0080F0CD06269884BDB6903F070039A
:101810009A4205D98549CB6923F070031A43CA61FE
:10182000236813F0100F0CD0A269804BDB6903F41E
:10183000E0639A4205D97D49CB6923F4E0631A43FA
:10184000CA61236813F0200F0CD0E269774B1B6A42
:1018500003F070039A4205D974490B6A23F07003B0
:101860001A430A62236813F0020F0CD0E2686F4B30
:101870009B6903F00F039A4205D96C498B6923F0E9
:101880000F031A438A61236813F0010F41D0674A9E
:10189000936923F47063A1680B4393616368022B1F
:1018A0000AD0032B27D0012B2CD0604A126812F0EB
:1018B000040F06D10120ADE0126812F4003F00F0E1
:1018C000AE805A490A6922F0070213430B61FFF701
:1018D0005FFA0646554B1B6903F038036268B3EBA9
:1018E000C20F16D0FFF754FA801B41F2883398429A
:1018F000F0D903208EE04D4A126812F0007FE0D14B
:10190000012087E0494A126812F4807FD9D1012072
:1019100080E0236813F0020F0CD0E268434B9B6910
:1019200003F00F039A4205D240498B6923F00F035D
:101930001A438A613C4B1B6803F00F03AB420AD980
:10194000394A136823F00F032B431360136803F025
:101950000F03AB4265D1236813F0040F0CD022694A
:10196000324B9B6903F070039A4205D22F498B6971
:1019700023F070031A438A61236813F0080F0CD018
:1019800062692A4BDB6903F070039A4205D227494A
:10199000CB6923F070031A43CA61236813F0100F58
:1019A0000CD0A269214BDB6903F4E0639A4205D2B3
:1019B0001E49CB6923F4E0631A43CA61236813F01C
:1019C000200F0CD0E269194B1B6A03F070039A4296
:1019D00005D216490B6A23F070031A430A62FFF717
:1019E000EBFD12498B69C3F30323114AD35C03F067
:1019F0001F03D8408B6903F00F03D35C03F01F0370
:101A000020FA03F30B4A13600B4B18600B4B18685A
:101A1000FFF7C8F870BD012070470120FAE70120E8
:101A2000F8E70120F6E700BF00200052004402580A
:101A30007C4B020808000020040000201000002059
:101A400008B5FFF7B9FD0B4A9369C3F303230A49AD
:101A5000CB5C03F01F0320FA03F3926902F00F023C
:101A6000885C00F01F0023FA00F0044A1060044A6A
:101A7000136008BD004402587C4B02080800002097
:101A80000400002008B5FFF7DBFF054BDB69C3F35B
:101A90000223044AD35C03F01F03D84008BD00BFF3
:101AA000004402587C4B02083F230360114B1A6923
:101AB00002F0070242609A6902F4706282609A69D9
:101AC00002F00F02C2609A6902F070020261DA69E4
:101AD00002F070024261DA6902F4E06282611B6A1C
:101AE00003F07003C361044B1B6803F00F030B602A
:101AF000704700BF004402580020005270470000A9
:101B000090F83D30DBB2012B3AD1022380F83D3012
:101B10000268D36843F00103D36003681A4AB3F143
:101B2000804F18BF93421DD0A2F57C42934219D03A
:101B300002F58062934215D002F58062934211D083
:101B400002F5784293420DD0A2F56C42934209D03F
:101B500002F59432934205D01A6842F001021A60ED
:101B6000002070479968094A0A40062A18BFB2F552
:101B7000803F07D01A6842F001021A6000207047C7
:101B8000012070470020704700000140070001005D
:101B9000704770477047704710B5044603681A696C
:101BA00012F0020F11D0DA6812F0020F0DD06FF0B0
:101BB00002021A610123037703689B6913F0030F84
:101BC00079D0FFF7E6FF0023237723681A6912F024
:101BD000040F12D0DA6812F0040F0ED06FF0040276
:101BE0001A610223237723689B6913F4407F68D02E
:101BF0002046FFF7CEFF0023237723681A6912F0EF
:101C0000080F12D0DA6812F0080F0ED06FF0080239
:101C10001A61042323772368DB6913F0030F57D07D
:101C20002046FFF7B6FF0023237723681A6912F0D6
:101C3000100F12D0DA6812F0100F0ED06FF01002F1
:101C40001A61082323772368DB6913F4407F46D0A9
:101C50002046FFF79EFF0023237723681A6912F0BE
:101C6000010F03D0DA6812F0010F3FD123681A691F
:101C700012F0800F03D0DA6812F0800F3DD1236894
:101C80001A6912F4807F03D0DA6812F0800F3BD11A
:101C900023681A6912F0400F03D0DA6812F0400F7F
:101CA00039D123681A6912F0200F03D0DA6812F0D4
:101CB000200F37D110BDFFF76BFF2046FFF76AFFFB
:101CC00081E72046FFF764FF2046FFF763FF92E7B6
:101CD0002046FFF75DFF2046FFF75CFFA3E72046A5
:101CE000FFF756FF2046FFF755FFB4E76FF00102FC
:101CF0001A612046FEF76AFEB8E76FF080021A61AB
:101D0000204600F0CAF8BAE76FF480721A612046E4
:101D100000F0C4F8BCE76FF040021A612046FFF7FC
:101D20003AFFBEE76FF020021A61204600F0B4F8D7
:101D3000C0E7000030B50368394A904214BF4FF045
:101D4000000E4FF0010EB0F1804F14BF72464EF0FE
:101D50000102AAB9334CA04214BF00240124324D21
:101D6000A8420DD064B904F1804404F58234A04245
:101D700014BF0024012405F50065A84200D01CB161
:101D800023F070034C68234312BB264A904214BFD1
:101D900000220122244CA0421AD0CAB902F180428A
:101DA00002F58232904214BF0022012204F5006441
:101DB000A0420DD062B91D4A904214BF00220122F8
:101DC00004F59A34A04203D012B9194A904204D1C2
:101DD00023F4407CCB6843EA0C0323F080034A6978
:101DE000134303608A68C2620A688262114A9042A1
:101DF00014BF73464EF0010363B90C4B984214BFF5
:101E00000023012302F57052904203D013B9084B0E
:101E1000984201D10B6903630123436130BD00BFC8
:101E20000000014000080040000400400044014060
:101E3000004801400004014060B310B5044690F82A
:101E40003D3013B3022384F83D30214651F8040B92
:101E5000FFF770FF012384F8483084F83E3084F89F
:101E60003F3084F8403084F8413084F8423084F8C0
:101E7000433084F8443084F8453084F8463084F8A0
:101E8000473084F83D30002010BD80F83C30FFF72B
:101E900035FED7E70120704770477047704708B597
:101EA0004FF0E0231B6900F0A1F9012800D108BD23
:101EB00000F070F8FBE743684B609A688A605160F5
:101EC00099600861036801330360704703694168E2
:101ED00082688A60416851605A68824206D0002256
:101EE00002611A68013A1A601868704782685A607D
:101EF000F5E7000000000000000000000000000006
:101F0000074B19680868B0E8F04F80F30988BFF301
:101F10006F8F4FF0000080F311887047AFF300809F
:101F20004803002000000000000000000000000046
:101F3000EFF30980BFF36F8F154B1A681EF0100F77
:101F400008BF20ED108A20E9F04F10602DE909004C
:101F50004FF0500080F31188BFF34F8FBFF36F8FA6
:101F600000F0D0F84FF0000080F3118809BC196828
:101F70000868B0E8F04F1EF0100F08BFB0EC108AF0
:101F800080F30988BFF36F8F704700BFAFF3008005
:101F90004803002008B54FF0500383F31188BFF3C6
:101FA0006F8FBFF34F8F00F021F828B14FF0E0237F
:101FB0004FF08052C3F8042D002383F3118808BD2D
:101FC000084B1B681B6823B9074B4FF0FF321A60A0
:101FD0007047044B1B68DB68DB685A68024B1A6069
:101FE000704700BF4C030020C4070020F8B53A4BEF
:101FF0001B68002B69D1394B1D6801351D60C5B9BF
:10200000374B1B681B6843B14FF0500383F31188B3
:10201000BFF36F8FBFF34F8FFEE7314A1168314B2B
:10202000186810601960304A136801331360FFF7B5
:10203000C7FF2E4B1B68AB423DD900272C4B1B68BA
:10204000DB6A03EB83039A002A4B9B58012B00D9D0
:102050000127294B1B68002B3CD001273AE00127C0
:102060001F4B1B681B6843B31D4B1B68DB68DC6898
:1020700063689D4226D3261D3046FFF727FFA36ADB
:102080001BB104F11800FFF721FFE36A1B4A126835
:10209000934201D9194A136003EB83039A00314636
:1020A00014481044FFF707FFE26A114B1B68DB6A14
:1020B0009A42D4D2D4E70027D2E70C4B4FF0FF323C
:1020C0001A60BBE7094A1360B8E70D4A1368013389
:1020D000136000273846F8BDBC070020D407002055
:1020E0004C03002050030020C8070020C407002034
:1020F0004803002054030020D8070020C007002018
:10210000CC07002008B5314B1B681BB1304B0122B6
:102110001A6008BD2E4B00221A60FEF726FD2D4BDB
:1021200018602D4B1B68984205D92C4A1168C31AB8
:102130008A6D1A448A65284B1860284B1A68126801
:102140001B681B6B9A420AD9254B1B6803EB830261
:10215000920024498A5892B943B1013BF6E71F4BDC
:10216000186819683431FEF702FDEDE74FF05003AF
:1021700083F31188BFF36F8FBFF34F8FFEE703EB3D
:10218000830201EB820250684068506003EB8302D7
:1021900092000832114488420FD003EB8301114AA8
:1021A00002EB81025268D1680C4A11600C490B6045
:1021B000136860330C4A1360ABE7406803EB83019C
:1021C000084A02EB81025060E7E700BFBC0700202D
:1021D000D8070020B8070020B407002048030020DB
:1021E000C0070020540300209C000020054B1B6802
:1021F00033B1054B1B680BB10020704702207047BC
:1022000001207047D0070020BC070020DFF834D041
:10221000FEF71EFD0C480D490D4A002302E0D4587C
:10222000C4500433C4188C42F9D30A4A0A4C002320
:1022300001E013600432A242FBD319F0A5FFFEF7C0
:1022400057FC70470000022000000020D802002048
:10225000B0930208D8020020501E0020FEE70B4673
:102260000146184619F0ECBB37B5051D0446284653
:1022700001910BF007FE0023C4E91D33C4E92033AC
:10228000C4E9223384F87C30054B01992360284649
:102290001433636003B0BDE830400BF0DCBD00BF19
:1022A0002071020837B5051D0446284601910BF040
:1022B000E9FD0023C4E91F33C4E921336367A4F8AF
:1022C0007830054B0199236028461433636003B0CE
:1022D000BDE830400BF075BDF07002082DE9F04FFD
:1022E000DFF844922DED028BD9F80040631C08EE14
:1022F000100A83B0C9F80030002C40F0ED80DFF800
:102300002CB2794B794F7A4EDFF824A201221A7051
:10231000DBF80030774A9D68BC61C7E90024C7E953
:102320000244C7E9044407F11C0000F0ABFEDBF8EF
:102330000010704A3D624FF0FF384D68C7F800A0AA
:10234000C7F82480C6E90024C6E90244C6E904446B
:10235000B46106F11C0000F095FEC6E90858DBF8F0
:102360000010654D634ACB68C6F800A0C5E900249B
:10237000C5E90244C5E90444AC6105F11C000193C0
:1023800000F080FE019BC5F800A0DFF8A8A1C5E918
:10239000083839465046FFF785FF584A10460BF07B
:1023A00071FD564A564942F8081CA2F1080714313B
:1023B000B9603146534E1467C2E91E44C2E9204455
:1023C000A2F8744042F8044C10460BF0FAFC29467F
:1023D0003046FFF767FF29464B48FFF763FF326936
:1023E000DBF80030C7F878A042F40052474F326162
:1023F000474A9D68C6F874A0C7E90024C7E90244AB
:10240000C7E90444BC6107F11C0000F03BFE414EEB
:10241000DBF800103E4ADFF820A1C7F800A0C7E9AA
:10242000085806F11C004D68B461C6E90024C6E9ED
:102430000244C6E9044400F025FEDBF80010344AEB
:10244000D1F80CB0C6F800A0C6E90858324DC5E96D
:102450000024C5E90244C5E90444AC6105F11C004F
:1024600000F010FEC5E908B8DFF8D0B0DFF8D08082
:10247000C5F800A039465846FFF7F6FE40460BF077
:1024800001FD264B88F87840A8F10807C8E91C44EC
:10249000C8E91F44C8E9214448F8083C48F8044CFE
:1024A00014331F4CBB60314640460BF0D4FC294628
:1024B0002046FFF7D9FE1B482946FFF7D5FE2369C2
:1024C000C8F870B043F400532361D9F80030C4F861
:1024D00074B00133C9F8003018EE100A03B0BDEC37
:1024E000028BBDE8F08F00BF140000202C080020F4
:1024F000DC0700200872020804080020D40800202D
:10250000B46A02085C090020E8090020A408002041
:1025100048720208540800207C080020E46A02087F
:10252000940B0020240C0020481D00209C0000205B
:10253000F0680208740A002030690208B40C002018
:10254000080B00200D4A1368591E022B10B50446D3
:10255000116011D10A4811F023FA0A4811F020FA4B
:10256000094811F01DFA094811F071FA084811F0F4
:102570006EFA084811F06BFA204610BD481D002085
:10258000740A00205C090020E8090020B40C002037
:10259000940B0020240C002070474268511E012A31
:1025A000416002D103685B6818477047044A0B68B2
:1025B0001268036093421EBF1A6801321A607047A6
:1025C000480D00200160704702490348002218F0BE
:1025D00073BC00BF8C4B0208500D002010B5034C9B
:1025E00023680BB9FFF7F0FF206810BD500D0020E5
:1025F000004870478C4B020838B543680446B3B9AD
:102600006068B0B9E36813BBE06810BB23691BBB0B
:10261000206958BB204638BD52F8250008B1FFF7A5
:10262000BCFF0135D4E90123AB42F5D8E8E700252A
:10263000F8E718F001F8E5E752F8250008B1FFF7D0
:10264000ACFF0135D4E90232AB42F5D8DCE7002516
:10265000F8E717F0F1FFD9E700252369585908B1C9
:1026600017F0EAFF0435182DF7D1D1E717F0E4FF92
:10267000D0E703685A1E012B10B50446026006D14C
:10268000FFF7BAFF2046BDE8104017F0D1BF10BDDC
:10269000054B10B51B6804460068984201D0FFF74F
:1026A000E8FF204610BD00BF480D00200A4A38B59B
:1026B0000B680D4611688B4218BF1A680446006803
:1026C0001CBF01321A60814201D0FFF7D2FF2B6894
:1026D0002360204638BD00BF480D0020036823B9A1
:1026E000034A1368013313600360006801387047C0
:1026F0004C0D00202DE9F84F044617460846002AE5
:102700005BD0FFF7EBFFA368013B9842054645D934
:1027100000F104086FF06043984534BF4FEA880B1E
:102720004FF0FF3B5846D4F8049018F00EF8A2681A
:1027300006460020904242D1C0F104022A44920091
:10274000804538BF0022002106EB800019F0A2FE70
:102750005846D4F80CA017F0F8FFA2688346002072
:10276000904233D1C0F104022A449200804538BF20
:10277000002200210BEB800019F08CFEC4E90168F7
:10278000C4F80CB0B9F1000F02D0484617F054FF5E
:10279000BAF1000F02D0504617F04EFF7B68666812
:1027A00001337B6056F82530002B4CD146F825705C
:1027B00000252E46A3689D4248D3BDE8F88F616886
:1027C00051F8201046F820100130B3E7E16851F8C5
:1027D00020104BF820100130C2E7D8F80400FFF7B2
:1027E0007DFF85420AD10846FFF778FF56F8203072
:1027F00080461BB3384602F073FF15E008F1080865
:10280000D8F80010D1B10846FFF768FF8542E4D13F
:10281000D8F804100846FFF761FF56F820308046CC
:1028200063B1384608F07AF8436801338146436063
:1028300056F82800FFF7B1FE46F8289056F8250014
:10284000FFF7ABFEB2E7DFF81C80D9E7E36853F887
:10285000250020B1FFF7A1FEE36843F825600135AC
:10286000A8E700BFAC4B02082DE9F041214F3B68BF
:10287000BFF35B8FDB0706460C46154606D4384689
:1028800017F03BFF10B1384617F043FF1A490F68A5
:1028900017B94FF0FF3308E03846FFF71FFFA84293
:1028A00048680DD1FFF71AFF0346F16851F825205B
:1028B00092B1ECB1236820465B68BDE8F04118474F
:1028C000FFF70CFFA84205D13846FFF707FF2B465C
:1028D0000546EAE70831DAE76268501C6060581C78
:1028E00018BF023241F825401CBF626041F8234006
:1028F000BDE8F081440D0020AC4B020810B5084C37
:102900002368BFF35B8FDB0708D4204617F0F5FE82
:1029100020B12046BDE8104017F0FBBE10BD00BF3F
:10292000580D00202DE9F04F30238360C24B016029
:1029300087B00646C0220021184619F0ABFDBF4BF8
:102940007060C0221846002119F0A4FDBC4CBD4D9A
:10295000F06014220021201D19F09CFD34612560D7
:10296000FFF746FEB84C03882B8000220123114656
:10297000204604F0ABFB22463046B449B44CDFF8A5
:10298000C4A3DFF8C4B3B34DDFF8C093DFF8C0834E
:10299000FFF7B0FEB04A0121104618F0F1FA3046B8
:1029A000AD4AAE49FFF7A6FEAD4AAE4B1360012714
:1029B0000023C2E90233C2E90533C2E907331374C5
:1029C000938482F8643057601146A74A676022609A
:1029D000A1602046194600F00FFF22463046A34969
:1029E000A34CFFF787FEA34AA34957601160304606
:1029F000A249FFF77FFEA24AA24957601160304604
:102A0000A149FFF777FEA14A67602260FFF7E6FD64
:102A10002246A0609E499F4C3046FFF76BFE9E4ABF
:102A2000CAF8002000239D4A676019462260C4F856
:102A300008A01A462046CAE90233CAE90533CAE9A2
:102A40000733CAE90933CAE90B33AAF810308AF808
:102A50001230CAF834308AF84330CAF8047000F0F3
:102A60006FFB224630468E498E4CFFF743FE8E4A5E
:102A7000CBF8002000238D4A676019462260C4F815
:102A800008B01A462046CBE90233CBE90533CBE93F
:102A90000733CBE90933CBE90B33ABF810308BF8B4
:102AA0001230CBF834308BF84330CBF8047000F0A0
:102AB00003FB224630467E497E4CFFF71BFE7E4AD2
:102AC0007E495760116030467D49FFF713FE7D4A0D
:102AD0007D495760116030467C49FFF70BFE0023AB
:102AE0007B4A6F60C5E90233C5E90433C5E90633A3
:102AF000C5E90833C5E90A33C5E90C33C5E90E3326
:102B0000C5E91033C5E91233C5E91433C5E91633F5
:102B1000C5E91833C5E91A33C5E91C33C5E91E33C5
:102B20002A602946C5E920333A46C5E92233C5E97A
:102B30002433C5E92633C5E92833C5E92A33C5E975
:102B40002C33C5E92E33C5F8C03085F8C430204693
:102B50000BF02CFE224630465E495F4CFFF7CAFD63
:102B60005E4A5F495760116030465E49FFF7C2FD1B
:102B70005D4A5E495760116030465D49FFF7BAFD16
:102B80005C4A3946104605F05BF83046594A5A49C6
:102B9000FFF7B0FD594A3946104604F083FA304633
:102BA000564A5749FFF7A6FD564A3946104618F0CF
:102BB000F7F93046534A5449FFF79CFD534B544AAA
:102BC0001A601A465F600023C2E90233C2E9053386
:102BD000C2E9073313745362936282F824311146B9
:102BE0004C4A67602260A1602046194600F06CFEE6
:102BF000224630464849494CFFF77CFD484A49493E
:102C00005760116030464849FFF774FD474A48490C
:102C10005760116030464749FFF76CFD464A6760D0
:102C20002260FFF7DBFC2246A0604449444C30465A
:102C3000FFF760FD8EE000BF001B0020101A00208F
:102C4000F8190020E8120020F4120020C01C002017
:102C50007C0D0020F00F0020D01A0020101E002054
:102C6000600E0020B44C0208085B0208F41C00202F
:102C7000E81A0020C01B0020A46B0208A81D002039
:102C8000D01B0020E06B0208A41D0020EC5A0208B3
:102C9000E81C0020200E00204C4C0208605B02085B
:102CA000FC1C00202C0E00203C4C02082C5B02086F
:102CB000F81C0020E40D0020C40D0020B05B0208C9
:102CC000041D0020D40D0020C85B0208001D002058
:102CD000106C02088C1D0020880D0020940D00202F
:102CE000E05B0208F01C0020A40D0020106D02081B
:102CF000881D00205C0D0020EC1C00201415002015
:102D0000C41C0020DC1A0020141E0020C80E002065
:102D1000C44C0208E0650208341D0020F41A0020AB
:102D2000C81B00209C730208081E0020D81B00202E
:102D3000D8730208041E0020C4650208281D002064
:102D4000380E002080110020C4110020081200203D
:102D5000781200208F4AC9F8002000238E4A67604D
:102D600019462260C4F808901A462046C9E9023381
:102D7000C9E90533C9E90733C9E90933C9E90B339F
:102D8000C9E90D3389F81030C9F83C3089F86C3046
:102D9000C9F8047000F094FA224630467F49804C0E
:102DA000FFF7A8FC7F4AC8F8002000237E4A67602E
:102DB00019462260C4F808801A462046C8E9023342
:102DC000C8E90533C8E90733C8E90933C8E90B3353
:102DD000C8E90D3388F81030C8F83C3088F86C30FA
:102DE000C8F8047000F024FA224630466F49704C4F
:102DF000FFF780FC6F4A70495760116030466F4999
:102E0000FFF778FC6E4A6F495760116030466E4993
:102E1000FFF770FC00236D4A6760C4E90233C4E920
:102E20000433C4E90633C4E90833C4E90A33C4E906
:102E30000C33C4E90E33C4E91033C4E91233C4E9D6
:102E40001433C4E91633C4E91833C4E91A33C4E9A6
:102E50001C33C4E91E332260C4E92033C4E92233A1
:102E6000C4E92433C4E92633C4E92833C4E92A3346
:102E7000C4E92C33C4E92E33C4F8C03084F8C4301C
:102E8000534B3A462146184612F006F8504B51492A
:102E90001A463046FFF72EFC4F4A504B57601360DE
:102EA00030464F49FFF726FC4E4A4F4B13605760A0
:102EB00030464E49FFF71EFC4D4A3946104608F091
:102EC00021FE30464A4A4B49FFF714FC4A4A4B4B15
:102ED0005760136030464A49FFF70CFC494A4A4B99
:102EE0005760136030464949FFF704FC484A494B94
:102EF0005760136030464849FFF7FCFB474A484B90
:102F00005760136030464749FFF7F4FB4649474B8B
:102F1000CDF808B0CDE9031930466946CDE9003A4D
:102F2000CDF8148001F0E2FA4148F768FFF7D6FBCC
:102F30003E4B47F820303F48F768FFF7CFFB47F894
:102F400020A03D48F768FFF7C9FB47F820B03B4891
:102F5000F768FFF7C3FB47F820503948F568FFF7DB
:102F6000BDFB314945F820100C48F568FFF7B6FB6A
:102F700045F820900D48F568FFF7B0FB45F8208034
:102F80001448F568FFF7AAFB45F82040304607B023
:102F9000BDE8F08F6C4C0208386602083C1D00202A
:102FA000440E00205C4C020804660208381D002014
:102FB000B8100020CC0D002088660208441D0020B7
:102FC000DC0D0020A0660208401D002008740208E5
:102FD000F80D0020EC1D00209C0D0020B8660208B2
:102FE000301D0020AC0D002008750208E81D0020EF
:102FF0006C0D00202C1D0020B40D00200450020890
:10300000EC1B0020BC0D0020AC4F0208E41B00208C
:10301000500E0020D84F0208E81B0020580E002058
:10302000804F0208E01B0020C80E0020600E002028
:10303000F41C0020FC1C0020F81C00208C1D00202B
:10304000341D002010B5074C02212046FFF76AFC12
:10305000054B06481C60064B21461C60BDE810402D
:10306000FFF7B0BA0C0E0020480D0020F419002024
:10307000540D0020024B1B680BB9FFF7E3BF7047EC
:10308000480D002038B5002303600446084DFFF7C3
:10309000F1FF084A2B6812682360934206D0FFF7BD
:1030A0002DFC2B6823601A6801321A60204638BD57
:1030B000540D0020480D002038B584680546ACB991
:1030C000442017F031FB1A4B0482C0E90034C0E9F8
:1030D0000244C0E90544C0E90744C0E90944C0E925
:1030E0000B448474446380F84340A860AB68114982
:1030F0002E225A74AB682C229A74AA680023C2E963
:103100000513C2E90713C2E9091391600A49D360A4
:1031100008681063D362AA685063084A1068AA68F6
:10312000C15C1A4401330B2B82F83810F7D138BD3B
:103130003C4C02088F8E0208807C02082000002090
:1031400038B584680546ACB9442017F0EDFA1A4B3F
:103150000482C0E90034C0E90244C0E90544C0E982
:103160000744C0E90944C0E90B448474446380F80F
:103170004340A860AB6811492E225A74AB682C22D8
:103180009A74AA680023C2E90513C2E90713C2E9C9
:10319000091391600A49D36008681063D362AA6872
:1031A0005063084A1068AA68C15C1A4401330B2BAB
:1031B00082F83810F7D138BD4C4C02088F8E0208C7
:1031C000807C020820000020064B10B504460360F6
:1031D000806810B103685B6898472046FFF7DCF908
:1031E000204610BD2C5B020810B50446FFF7ECFF2B
:1031F000204617F01DFA204610BD0000064B10B502
:1032000004460360806810B103685B6898472046F5
:10321000FFF7C2F9204610BD605B020810B50446F6
:10322000FFF7ECFF204617F003FA204610BD000020
:1032300038B584680546B4B9702017F075FAC0E94E
:103240000244C0E90544C0E90744C0E90944C0E9B3
:103250000B44C0E90D44154B446003600474C4631F
:1032600080F86C40A860AB682E212C22C3E90512BF
:103270000F49104A9A600022C3E90712C3E90912F4
:10328000C3E90B12DA605A630B4A10689863AB68A3
:10329000D8630A4BAA681B684032591E0A3311F8DA
:1032A000010F42F8040B9942F9D138BD5C4C020879
:1032B000D89102088F8E0208807C0208200000202E
:1032C00038B584680546B4B9702017F02DFAC0E906
:1032D0000244C0E90544C0E90744C0E90944C0E923
:1032E0000B44C0E90D44154B446003600474C4638F
:1032F00080F86C40A860AB682E212C22C3E905122F
:103300000F49104A9A600022C3E90712C3E9091263
:10331000C3E90B12DA605A630B4A10689863AB6812
:10332000D8630A4BAA681B684032591E0A3311F849
:10333000010F42F8040B9942F9D138BD6C4C0208D8
:10334000D89102088F8E0208807C0208200000209D
:10335000064B10B504460360806810B103685B68D3
:1033600098472046FFF718F9204610BD046602086A
:1033700010B50446FFF7ECFF204617F059F9204638
:1033800010BD0000064B10B504460360806810B104
:1033900003685B6898472046FFF7FEF8204610BD9B
:1033A0003866020810B50446FFF7ECFF204617F018
:1033B0003FF9204610BD00000D4B10B5036090F89A
:1033C000433004467BB1806808B117F035F9606975
:1033D00008B117F031F9E06908B117F02DF9606A0A
:1033E00008B117F029F92046FFF7D6F8204610BD9E
:1033F0003C4C020810B50446FFF7DEFF204617F0EC
:1034000017F9204610BD00000D4B10B5036090F871
:10341000433004467BB1806808B117F00DF960694C
:1034200008B117F009F9E06908B117F005F9606A09
:1034300008B117F001F92046FFF7AEF8204610BD9D
:103440004C4C020810B50446FFF7DEFF204617F08B
:10345000EFF8204610BD00000D4B10B5036090F84A
:103460006C3004467BB1806808B117F0E5F8E0697C
:1034700008B117F0E1F8606A08B117F0DDF8E06A0A
:1034800008B117F0D9F82046FFF786F8204610BD9E
:103490005C4C020810B50446FFF7DEFF204617F02B
:1034A000C7F8204610BD00000D4B10B5036090F822
:1034B0006C3004467BB1806808B117F0BDF8E06954
:1034C00008B117F0B9F8606A08B117F0B5F8E06A0A
:1034D00008B117F0B1F82046FFF75EF8204610BD9E
:1034E0006C4C020810B50446FFF7DEFF204617F0CB
:1034F0009FF8204610BD000038B584680546ACB979
:10350000442017F011F91A4B0482C0E90034C0E9D5
:103510000244C0E90544C0E90744C0E90944C0E9E0
:103520000B448474446380F84340A860AB6811493D
:103530002E225A74AB682C229A74AA680023C2E91E
:103540000513C2E90713C2E9091391600A49D36060
:1035500008681063D362AA685063084A1068AA68B2
:10356000C15C1A4401330B2B82F83810F7D138BDF7
:103570003C4C02088F8E0208807C0208200000204C
:1035800038B584680546ACB9442017F0CDF81A4B1D
:103590000482C0E90034C0E90244C0E90544C0E93E
:1035A0000744C0E90944C0E90B448474446380F8CB
:1035B0004340A860AB6811492E225A74AB682C2294
:1035C0009A74AA680023C2E90513C2E90713C2E985
:1035D000091391600A49D36008681063D362AA682E
:1035E0005063084A1068AA68C15C1A4401330B2B67
:1035F00082F83810F7D138BD4C4C02088F8E020883
:10360000807C020820000020064B10B504460360B1
:10361000806810B103685B6898472046FEF7BCFFDE
:10362000204610BD306C020810B50446FFF7ECFFD1
:10363000204616F0FDFF204610BD0000064B10B5D9
:1036400004460360806810B103685B6898472046B1
:10365000FEF7A2FF204610BD646C020810B50446B8
:10366000FFF7ECFF204616F0E3FF204610BD0000F8
:1036700038B584680546B4B9702017F055F8C0E92C
:103680000244C0E90544C0E90744C0E90944C0E96F
:103690000B44C0E90D44154B446003600474C463DB
:1036A00080F86C40A860AB682E212C22C3E905127B
:1036B0000F49104A9A600022C3E90712C3E90912B0
:1036C000C3E90B12DA605A630B4A10689863AB685F
:1036D000D8630A4BAA681B684032591E0A3311F896
:1036E000010F42F8040B9942F9D138BD5C4C020835
:1036F000D89102088F8E0208807C020820000020EA
:1037000038B584680546B4B9702017F00DF8C0E9E3
:103710000244C0E90544C0E90744C0E90944C0E9DE
:103720000B44C0E90D44154B446003600474C4634A
:1037300080F86C40A860AB682E212C22C3E90512EA
:103740000F49104A9A600022C3E90712C3E909121F
:10375000C3E90B12DA605A630B4A10689863AB68CE
:10376000D8630A4BAA681B684032591E0A3311F805
:10377000010F42F8040B9942F9D138BD6C4C020894
:10378000D89102088F8E0208807C02082000002059
:10379000064B10B504460360806810B103685B688F
:1037A00098472046FEF7F8FE204610BD2874020810
:1037B00010B50446FFF7ECFF204616F039FF20460F
:1037C00010BD0000064B10B504460360806810B1C0
:1037D00003685B6898472046FEF7DEFE204610BD72
:1037E0005C74020810B50446FFF7ECFF204616F0A3
:1037F0001FFF204610BD000038B58468054684B917
:10380000682016F091FFC0E90244C0E90544C0E910
:1038100007441A4B446003600474848480F8644055
:10382000A860AA68164B93602E21002382F824100A
:10383000D3601374AA682C2182F82510114A1068ED
:10384000AA68C15C1A440133242B82F82610F7D1F0
:103850000D4B18680023AA68C15C1A4401331A2B67
:1038600082F84A10F7D1AB68084A5A6104229A617B
:10387000074ADA6105221A6238BD00BFB44C02085B
:103880008F8E02081C00002018000020744C0208D3
:10389000794C0208064B10B504460360806810B1ED
:1038A00003685B6898472046FEF776FE204610BD09
:1038B000085B020810B50446FFF7ECFF204616F03F
:1038C000B7FE204610BD000038B58468054694B99F
:1038D0004FF4947016F028FFC0E90244C0E9054493
:1038E000C0E90744C0E90944184B4460036004740C
:1038F00080F82441A860AB68154A9A6000222E2106
:10390000DA601A742C22C3E90912124A126803F110
:103910002C00511E233211F8014F40F8044B914204
:10392000F9D10D4A126803F1BC00511E193211F889
:10393000014F40F8044B9142F9D1084A5A610422E0
:103940009A61074ADA6105221A6238BDC44C02083E
:103950008F8E02081C00002018000020804C0208F6
:10396000944C0208064B10B504460360806810B101
:1039700003685B6898472046FEF70EFE204610BDA0
:10398000E065020810B50446FFF7ECFF204616F08C
:103990004FFE204610BD00000B4B10B5036090F8A1
:1039A000643004465BB1806808B116F045FE60697A
:1039B00008B116F041FEE06908B116F03DFE204660
:1039C000FEF7EAFD204610BDB44C020810B50446CF
:1039D000FFF7E2FF204616F02BFE204610BD000048
:1039E0000B4B10B5036090F8243104465BB180683E
:1039F00008B116F021FE606908B116F01DFEE069FD
:103A000008B116F019FE2046FEF7C6FD204610BD8F
:103A1000C44C020810B50446FFF7E2FF204616F03A
:103A200007FE204610BD000038B58468054684B9FD
:103A3000682016F079FEC0E90244C0E90544C0E9F7
:103A400007441A4B446003600474848480F8644023
:103A5000A860AA68164B93602E21002382F82410D8
:103A6000D3601374AA682C2182F82510114A1068BB
:103A7000AA68C15C1A440133242B82F82610F7D1BE
:103A80000D4B18680023AA68C15C1A4401331A2B35
:103A900082F84A10F7D1AB68084A5A6104229A6149
:103AA000074ADA6105221A6238BD00BFB44C020829
:103AB0008F8E02081C00002018000020744C0208A1
:103AC000794C0208064B10B504460360806810B1BB
:103AD00003685B6898472046FEF75EFD204610BDF0
:103AE000806B020810B50446FFF7ECFF204616F085
:103AF0009FFD204610BD000038B58468054694B986
:103B00004FF4947016F010FEC0E90244C0E9054479
:103B1000C0E90744C0E90944184B446003600474D9
:103B200080F82441A860AB68154A9A6000222E21D3
:103B3000DA601A742C22C3E90912124A126803F1DE
:103B40002C00511E233211F8014F40F8044B9142D2
:103B5000F9D10D4A126803F1BC00511E193211F857
:103B6000014F40F8044B9142F9D1084A5A610422AE
:103B70009A61074ADA6105221A6238BDC44C02080C
:103B80008F8E02081C00002018000020804C0208C4
:103B9000944C0208064B10B504460360806810B1CF
:103BA00003685B6898472046FEF7F6FC204610BD88
:103BB0007873020810B50446FFF7ECFF204616F0B4
:103BC00037FD204610BD009B03201A60704700207F
:103BD00070470020704704207047009B03201A6044
:103BE0007047F0B50546D0E90020801A65D092F9FB
:103BF00000401378002C03DB01322A601846F0BD28
:103C0000C12B3BD9DF2B0FD8012856D0507800F0BC
:103C1000C004802C32D100EB8310A0F542508142C9
:103C2000EDD302322A60EAE7EF2B1AD8022844D9F2
:103C3000547804F0C000802820D1E02B01D19F2CC3
:103C40001CD9907800F0C006802E17D1A40104EB97
:103C500003340444A4F5622080388142CFD3033278
:103C6000E0E7F42B0AD8032827D9547804F0C000E1
:103C7000802803D1F02B04D18F2C06D84FF0FF30D1
:103C8000BDE7F42B01D18F2CF8D8967806F0C00050
:103C90008028F3D1D07800F0C007802FEED1240324
:103CA00004EB834404EB86140444A4F17270A0F581
:103CB00002508842A3D80432B4E76FF001009EE7B7
:103CC000F0B50546D0E90020801A65D092F9004091
:103CD0001378002C03DB01322A601846F0BDC12B9B
:103CE0003BD9DF2B0FD8012856D0507800F0C00404
:103CF000802C32D100EB8310A0F542508142EDD3ED
:103D000002322A60EAE7EF2B1AD8022844D9547805
:103D100004F0C000802820D1E02B01D19F2C1CD9B9
:103D2000907800F0C006802E17D1A40104EB033474
:103D30000444A4F5622080388142CFD30332E0E707
:103D4000F42B0AD8032827D9547804F0C00080281F
:103D500003D1F02B04D18F2C06D84FF0FF30BDE7F4
:103D6000F42B01D18F2CF8D8967806F0C00080286B
:103D7000F3D1D07800F0C007802FEED1240304EBFC
:103D8000834404EB86140444A4F17270A0F502503D
:103D90008842A3D80432B4E76FF001009EE77F2980
:103DA00008D8D0E900329A4242D05A1C02601970F9
:103DB00001207047B1F5006F10D2D0E90032D21A5D
:103DC000012A35D95A1C02608A09403A1A700368E0
:103DD00001F03F015A1C02608039E8E7B1F5803FED
:103DE00011D2D0E90032D21A022A21D95A1C02601B
:103DF0000A0B203A1A700268531C0360C1F3851342
:103E0000803B1370E3E7B1F5881F11D2D0E900328F
:103E1000D21A032A0CD95A1C02608A0C103A1A7062
:103E20000268531C0360C1F30533803B1370E2E763
:103E3000002070477F2910B508D8D0E900329A4297
:103E400047D05A1C02601970012010BDB1F5006FF7
:103E50000FD2D0E90032D21A012A3AD98C091A4677
:103E6000403C02F8024B01F03F018039026059707A
:103E7000EAE7B1F5803F12D2D0E90032D21A022A25
:103E800027D90A0B203A1A70C1F38512803A01F043
:103E90003F015A708039DA1C02609970D4E7B1F59D
:103EA000881F16D2D0E90032D21A032A11D98A0CFF
:103EB000103A1A70C1F30532803A5A70C1F3851274
:103EC000803A01F03F019A7080391A1D0260D97062
:103ED000BAE70020B9E7B1F5803F10B5D0E900435B
:103EE0000BD2A34222D0D30789B201D449BA89B2F6
:103EF000A31C03602180012010BD1B1B022B15D9C0
:103F00008B0AC1F30901A3F52153A1F5105112F059
:103F100001029BB289B201D15BBA9BB223800AB97C
:103F200049BA89B2231D03606180E4E70020E3E71A
:103F300073B51E46079B0093089B01931446A64247
:103F4000254607D10020069B009A1D60099B1A6038
:103F500002B070BD2168B1F5881F05F1040406D2D6
:103F60006846FFF767FF0028E9D10120EBE7022050
:103F7000E9E70000F0B585B0CDE900230C9E144FB1
:103F80001C460B9BCDE90236009D029BAC421DD026
:103F90009E421BD039466846FFF792FE831C0146BD
:103FA00009D0B1F5881F0FD2012202A8FFF793FFB5
:103FB0000028E9D1009501200A9B009A1A600D9B08
:103FC000029A1A6005B0F0BD0220F5E70020F3E781
:103FD000FFFF10008B070CD5D0E90032D21A022A5D
:103FE00009D9064A1188927819809A7003680333B8
:103FF0000360012070470020704700BFCC4C0208CE
:104000002DE9F0410E46044619463046069D1746F6
:10401000FFF7E0FF30BB0120BDE8F0811188A1F57A
:104020005840B0F5806F23D2012D29D09B1A022B66
:104030001CD95388A3F55C42B2F5806F20D2A3F15E
:104040005773A3F5773303EB81214FF002088F42BA
:1040500016D33046FFF7A3FE0028DCD0236803EB1D
:1040600048032360D4E900239A42D7D10020D3E744
:10407000A1F55C43B3F5806F02D34FF00108E6E78A
:104080000220C9E77FB5CDE90223099B04930A9B6F
:10409000059300230093074A04A902A8FFF7B0FF85
:1040A000089B029A1A600B9B049A1A6007B05DF88D
:1040B00004FB00BFFFFF100070B50D460446194613
:1040C00028461646FFF786FF60B9012070BD1968C3
:1040D0008E420DD32846FFF762FE0028F5D02368F4
:1040E00004332360D4E900329342F0D10020EDE79D
:1040F0000220EBE71FB5CDE90023079B0293089B45
:104100000393074A002302A96846FFF7D5FF069BE1
:10411000009A1A60099B029A1A6005B05DF804FBC8
:10412000FFFF100038B54B0704460CD5D0E900530B
:104130005B1B022B07D904490322284618F072F9A9
:1041400008B90335256038BD9C4D0208F8B50D4609
:10415000194604461646FFF7E5FFD4E900329A42B5
:1041600013D0D5E90073BB4201D10120F8BD31461F
:104170002046FFF736FD831CF7D0864203D33B1D54
:104180002B603860E9E70220F0E70020EEE700004E
:104190001FB5CDE90023079B0293089B0393074AB1
:1041A000002302A96846FFF7D1FF069B009A1A6018
:1041B000099B029A1A6005B05DF804FBFFFF10002E
:1041C00037B5CDE9000168469DF8181014461D4624
:1041D000FFF7A8FF002044B1A84204F1FF3404D83F
:1041E00029466846FFF7FDFCF5E7009803B030BDAF
:1041F00013B51446194600230093049A034B204636
:10420000FFF7DEFF001B02B010BD00BFFFFF100074
:104210002DE9F8430D461946044616461F46FFF79A
:1042200081FFD4E90089C8451DD0D5E900329A4202
:1042300019D031462046FFF7D4FC831C014604D137
:1042400008980130C0B2BDE8F8838E4209D33A46DF
:104250002846FFF740FE0028E3D1C4E90089012089
:10426000F1E70220EFE70020EDE700007FB5CDE9A0
:104270000223099B04930A9B059300230093074A9A
:10428000012304A902A8FFF7C3FF089B029A1A6042
:104290000B9B049A1A6007B05DF804FBFFFF100047
:1042A000F7B5CDE900019DF82010684616461C467A
:1042B000FFF738FF00256F1CB7420CD311D14FF622
:1042C000FF734FF6FE718C4294BF21461946684633
:1042D000FFF787FC05E021466846FFF782FCA04215
:1042E00002D9009803B0F0BDB0F5803F28BF3D462D
:1042F0000135E0E713B51446194600230093049AEC
:10430000034B2046FFF7CCFF001B02B010BD00BFDF
:10431000FFFF100073B51D46079B0093089B019398
:104320001446A54207D10020069B009A1C60099BF9
:104330001A6002B070BD2188A1F55843B3F5806FB3
:1043400015D22B1B022BEED96288A2F55C43B3F584
:10435000806F16D2A2F15772A2F5773202EB81215B
:1043600002266846FFF766FD40B90120DCE7A1F5AB
:104370005C43B3F5806F04D30126F2E704EB4604F7
:10438000CFE70220D0E7000073B5DDE90745CDE9AE
:1043900000230F491E46009B9E4216D0A54207D11E
:1043A0000120069B009A1A60099B1C6002B070BD38
:1043B0006846FFF785FC831CF2D0B0F5881F02D257
:1043C00044F8040BE7E70220EBE70020E9E700BF31
:1043D000FFFF100037B5CDE90023069D08491446BC
:1043E000002045B1B0F5881F05F1FF3503D26846BE
:1043F000FFF766FCF5E70098001B03B030BD00BF77
:10440000FFFF1000F7B5CDE90023089E0E491546C1
:104410000024671CBE4206D80BD14FF6FF716846D8
:10442000FFF74EFC05E06846FFF74AFCB0F5881F31
:1044300003D30098401B03B0F0BDB0F5803F28BF08
:104440003C460134E5E700BFFFFF100010B5034B09
:1044500003600446FEF7A0F8204610BD784D020820
:1044600010B50446FFF7F2FF204616F0E1F82046AB
:1044700010BD000010B5034B03600446FEF78CF836
:10448000204610BDF44C020810B50446FFF7F2FFB9
:10449000204616F0CDF8204610BD000010B5034BA5
:1044A00003600446FEF778F8204610BD204D020850
:1044B00010B50446FFF7F2FF204616F0B9F8204683
:1044C00010BD000010B5034B03600446FEF764F80E
:1044D000204610BD4C4D020810B50446FFF7F2FF10
:1044E000204616F0A5F8204610BD00002DE9F04F3B
:1044F00089B00B6801934B68A94F02938B680393B3
:10450000A84B3B600125019B7D6004460E46BB60C5
:1045100000213846FFF788FA7B68D4F80480DFF87A
:1045200018B3DFF818A32B447B609F4B1846FEF7A7
:10453000D5F848F820709D4F9D4A7D603A60FEF79F
:104540004DF87A68D4F80480B8602A447A609948B3
:10455000FEF7C4F848F82070974F984A029B3A60DB
:104560000022BB6011467D603846FFF709F87A6883
:10457000D4F804802A447A605846FEF7AFF848F829
:1045800020708F4F8F4A039B3A600022BB60114618
:104590007D603846FEF7B0FF7A68D4F804802A447C
:1045A0007A605046FEF79AF848F82070DFF890825B
:1045B000854AD4F80490C8F800200227C8F804708F
:1045C0008248FEF78BF849F82080DFF87882804A2D
:1045D000D4F80490C8F80020C8F804707D48FEF7AD
:1045E0007DF849F82080DFF860827B4AD4F8049097
:1045F000C8F80020C8F804707848FEF76FF849F84A
:104600002080DFF84882294640460AF0E9F9D8F8C8
:104610000420D4F8049072482A44C8F80420FEF715
:104620005DF849F82080F368049333690593736952
:104630006C4E6D4A0693049BB36000217560326036
:104640003046FFF759FA7268DFF80492D4F8048014
:104650002A4472604846FEF741F848F82060634EED
:10466000634A75603260FDF7B9FF7268D4F8048060
:10467000B0602A4472605F48FEF730F848F8206066
:104680005D4E5E4A059B32600022B3607560114644
:104690003046FFF735F87268DFF8B8816168079136
:1046A0002A4472604046FEF719F80799544A41F8C7
:1046B0002060544E069B32600022B3607560114644
:1046C0003046FEF7D5FF7268616807912A44726030
:1046D0004D4A1046FEF702F8079941F820604B4E0C
:1046E0004B4931604B48616877600791FDF7F6FFF1
:1046F000079941F82060484E484931604848616850
:1047000077600791FDF7EAFF079941F82060454E71
:10471000454931604548616877600791FDF7DEFFE4
:10472000079941F82060424E2946304610F0CEFCF1
:10473000716865683F4801317160FDF7CFFF1A4B22
:1047400045F820601846E568FDF7C8FF019B45F86D
:1047500020305846E568FDF7C1FF029B45F8203040
:104760005046E568FDF7BAFF039B45F82030484600
:10477000E568FDF7B3FF049B45F820304046E56847
:10478000FDF7ACFF204A059B45F820301046E46851
:10479000FDF7A4FF069B44F8203009B0BDE8F08F78
:1047A000101C0020806B0208901D0020881C002037
:1047B000646B02087C1D0020581C0020646C0208F9
:1047C000641C0020306C0208E06C0208A01D002070
:1047D000F86C02089C1D0020246D0208841D002036
:1047E000801D00201C1C002078730208941C0020EF
:1047F0001C730208DC1D0020701C00205C74020881
:10480000287402087C1C0020F41D0020401C00209D
:10481000D8740208001E0020501C0020F07402080A
:10482000FC1D0020301C00201C750208E41D002027
:10483000001C0020E01D0020981D0020941D002079
:10484000381C0020481C0020281C0020F01B0020E1
:10485000F01D0020F81D002001F0BCBD02F058B989
:10486000F8B50B6853F80C5C0746681C0E4615F04B
:104870006CFF0023044601462A46304601F0E2FC64
:10488000002363553C602846F8BDF8B50B6853F823
:104890000C5C6FF060426B1C9342074634BF98007B
:1048A0004FF0FF300E4615F050FF0023044601463E
:1048B0002A46304602F072F8002344F825303C6066
:1048C0002846F8BD13B5049CCDE9003413460A46CA
:1048D000C1684FF0000005F0C4FD02B010BD30B556
:1048E0008BB00D460AA901E90C0079230693129BAF
:1048F0000593119B0493109B03930EAA044692E820
:10490000030001AB83E80300099B00932046089B4A
:10491000AA684FF0000105F04CFF20460BB030BDF7
:1049200030B58BB00D460AA901E90C006D23069342
:10493000129B0593119B0493109B03930EAA0446AC
:1049400092E8030001AB83E80300099B0093204633
:10495000089BAA684FF0000105F02BFF20460BB022
:1049600030BD30B58BB00D460AA901E90C007723A4
:104970000693129B0593119B0493109B03930EAA1D
:10498000044692E8030001AB83E80300099B00930F
:104990002046089BAA684FF0000105F00AFF204658
:1049A0000BB030BD30B58BB00D460AA901E90C0043
:1049B00064230693129B0593119B0493109B03930E
:1049C0000EAA044692E8030001AB83E80300099BAA
:1049D00000932046089BAA684FF0000105F0E9FE0D
:1049E00020460BB030BD30B58BB00D460AA901E9A9
:1049F0000C0074230693129B0593119B0493109B48
:104A000003930EAA044692E8030001AB83E8030077
:104A1000099B00932046089BAA684FF0000105F00F
:104A2000C8FE20460BB030BD81684FF0000005F095
:104A3000BABEF0B591B00AAC84E80C00002307932D
:104A40000D930EAB06930DAB0593199B04939DF844
:104A50006030039316AA0F46054692E8030001ABA7
:104A600083E803000B9B009308AE0A9BBA684FF0E3
:104A70000001304606F08FFA96E803000D9B84E8AB
:104A800003005BB9DDE90E011B9BC3E9000194E85B
:104A9000030085E80300284611B0F0BD1A9A1360A0
:104AA000F5E710B588B00DF1200C0CE90C000023DF
:104AB00004939DF8303003930B9B02939DF82830AC
:104AC0000193079B009313468A684FF00001044648
:104AD00006F078F9204608B010BD0A4601694FF08B
:104AE000000005F058BE07B50968009251F80C3C6B
:104AF0000A4601694FF0000005F021FE03B05DF8A1
:104B000004FB13B5049CCDE9003413460A46C16882
:104B10004FF0000005F0B0FC02B010BD30B58BB016
:104B20000D460AA901E90C0079230693129B05930F
:104B3000119B0493109B03930EAA044692E8030072
:104B400001AB83E80300099B00932046089BAA68F9
:104B50004FF0000105F087FE20460BB030BD30B5A8
:104B60008BB00D460AA901E90C006D230693129B38
:104B70000593119B0493109B03930EAA044692E89D
:104B8000030001AB83E80300099B00932046089BC8
:104B9000AA684FF0000105F066FE20460BB030BD5C
:104BA00030B58BB00D460AA901E90C0077230693B6
:104BB000129B0593119B0493109B03930EAA04462A
:104BC00092E8030001AB83E80300099B00932046B1
:104BD000089BAA684FF0000105F045FE20460BB087
:104BE00030BD30B58BB00D460AA901E90C00642335
:104BF0000693129B0593119B0493109B03930EAA9B
:104C0000044692E8030001AB83E80300099B00938C
:104C10002046089BAA684FF0000105F024FE2046BC
:104C20000BB030BD30B58BB00D460AA901E90C00C0
:104C300074230693129B0593119B0493109B03937B
:104C40000EAA044692E8030001AB83E80300099B27
:104C500000932046089BAA684FF0000105F003FE70
:104C600020460BB030BD81684FF0000005F09EBDBE
:104C7000F0B591B00AAC84E80C00002307930D93C3
:104C80000EAB06930DAB0593199B04939DF8603012
:104C9000039316AA0F46054692E8030001AB83E88A
:104CA00003000B9B009308AE0A9BBA684FF000010B
:104CB000304606F00CFB96E803000D9B84E80300E9
:104CC0005BB9DDE90E011B9BC3E9000194E8030019
:104CD00085E80300284611B0F0BD1A9A1360F5E785
:104CE00010B588B00DF1200C0CE90C0000230493E2
:104CF0000C9B03930B9B02939DF828300193079B19
:104D0000009313468A684FF00001044606F0F6F956
:104D1000204608B010BD0A4601694FF0000005F0BA
:104D20003EBD07B50968009251F80C3C0A4601697E
:104D30004FF0000005F019FD03B05DF804FB000022
:104D400088422DE9F04104460D4618D0A0B10F1A53
:104D5000BF100021384601F05FFE00F10C08064646
:104D6000214640462A4601F012FE3946304601F0FF
:104D700047FE4046BDE8F081024808F07EFFDFF8BC
:104D80000880F6E728500208BC1C00202DE9F843F3
:104D9000154601EB0509494507460C461A4617D04A
:104DA00099B10021284601F097FA00F10C08064657
:104DB000214640464A4601F040FA2946304601F075
:104DC0007FFAC7F80080BDE8F883034808F055FF74
:104DD000DFF80880F5E700BF28500208AC1C00206F
:104DE00010B50446006843685A1E012B426002D188
:104DF00003685B689847204610BD000010B5074B5C
:104E00000360036900220446DA600C30FFF7E8FF14
:104E10002046FEF757FE204610BD00BFA0560208F0
:104E200010B50446FFF7EAFF204615F001FC2046C6
:104E300010BD000010B5084B036003690022044652
:104E4000DA609A611A629A620C30FFF7C9FF204655
:104E5000FEF7DAFB204610BDCC57020810B5044619
:104E6000FFF7E8FF204615F0E3FB204610BD0000E9
:104E700010B5084B0360036900220446DA609A61AA
:104E80001A629A620C30FFF7ABFF2046FEF7D6FBA2
:104E9000204610BD9857020810B50446FFF7E8FFFA
:104EA000204615F0C5FB204610BD000010B5054B8F
:104EB000044640F8103BFFF793FF204609F018FA2C
:104EC000204610BD6856020810B50446FFF7EEFFF5
:104ED000204615F0ADFB204610BD000010B5074B75
:104EE0000360036900220446DA600C30FFF778FFA4
:104EF0002046FEF74FFE204610BD00BFC4560208F4
:104F000010B50446FFF7EAFF204615F091FB204656
:104F100010BD000010B5084B036003690022044671
:104F2000DA601A629A621A630C30FFF759FF204662
:104F3000FEF72EFC204610BD3458020810B504467A
:104F4000FFF7E8FF204615F073FB204610BD000078
:104F500010B5084B0360036900220446DA601A6248
:104F60009A621A630C30FFF73BFF2046FEF72AFCDB
:104F7000204610BD0058020810B50446FFF7E8FFB0
:104F8000204615F055FB204610BD000010B5054B1E
:104F9000044640F8103BFFF723FF20460FF01CFDAE
:104FA000204610BD8456020810B50446FFF7EEFFF8
:104FB000204615F03DFB204610BD000010B5054B06
:104FC000044640F80C3BFFF70BFF204609F0A8F918
:104FD000204610BD3056020810B50446FFF7EEFF1C
:104FE000204615F025FB204610BD000010B5054BEE
:104FF000044640F8083BFFF7F3FE204609F006F9A7
:10500000204610BD3857020810B50446FFF7EEFFE2
:10501000204615F00DFB204610BD000010B5054BD5
:10502000044640F8083BFFF7DBFE204609F0F8F89D
:10503000204610BD6857020810B50446FFF7EEFF82
:10504000204615F0F5FA204610BD000010B5054BBE
:10505000044640F80C3BFFF7C3FE20460FF0D4FC9B
:10506000204610BD4C56020810B50446FFF7EEFF6F
:10507000204615F0DDFA204610BD000010B5054BA6
:10508000044640F8083BFFF7ABFE20460FF032FC29
:10509000204610BD5057020810B50446FFF7EEFF3A
:1050A000204615F0C5FA204610BD000010B5054B8E
:1050B000044640F8083BFFF793FE20460FF024FC1F
:1050C000204610BD8057020810B50446FFF7EEFFDA
:1050D000204615F0ADFA204610BD000010B5054B76
:1050E000044640F8083BFFF77BFE204609F0B6F87F
:1050F000204610BDE856020810B50446FFF7EEFF43
:10510000204615F095FA204610BD000010B5054B5D
:10511000044640F8083BFFF763FE20460FF012FC00
:10512000204610BD1057020810B50446FFF7EEFFE9
:10513000204615F07DFA204610BD836910B504465F
:1051400003B19847204610BD37B5084614460D46B2
:1051500009F010FB84F82400284609F00EFB002318
:10516000A3606361E361012384F8643084F825005F
:10517000294601A809F004FB01A904F10800FFF782
:105180006FFBE06001A801F025F9294601A809F0AC
:10519000FEFA01A904F11400FFF762FBA06101A867
:1051A00001F018F9294601A809F0F8FA01A904F15B
:1051B0001C00FFF755FB206201A801F00BF903B0BA
:1051C00030BD37B5084614460D460FF049FE606203
:1051D00028460FF048FE0023A3606361E3610123CA
:1051E00084F82431A062294601A80FF03FFE01A9EE
:1051F00004F10800FFF734FBE06001A801F0EAF8D1
:10520000294601A80FF039FE01A904F11400FFF7A7
:105210003CFBA06101A801F07BFC294601A80FF02E
:1052200033FE01A904F11C00FFF72FFB206201A847
:1052300001F06EFC03B030BD10B4084611461A46AA
:10524000DDE9013401945DF8044B09F0EBBB10B4C7
:10525000084611461A46DDE9013401945DF8044B15
:105260000FF056BF37B5084614460D4609F03FFA11
:105270006074284609F03EFAA074284609F059FAED
:105280000023A3606361E3616362012384F8433018
:10529000E062294601A809F030FA01A904F10800EA
:1052A000FFF7DEFAE06001A801F094F8294601A8B2
:1052B00009F02AFA01A904F11400FFF7D1FAA0615C
:1052C00001A801F087F8294601A809F024FA01A9EC
:1052D00004F11C00FFF7C4FA206201A801F07AF87B
:1052E000294601A809F01EFA01A904F12400FFF7DC
:1052F000B7FAA06201A801F06DF8284609F01CFA7F
:105300002063284609F01DFA606303B030BD37B54D
:10531000084614460D4609F0BBF96074284609F0AA
:10532000BAF9A074284609F0D5F90023A360636197
:10533000E3616362012384F84330E062294601A8F7
:1053400009F0ACF901A904F10800FFF789FAE0605F
:1053500001A801F03FF8294601A809F0A6F901A922
:1053600004F11400FFF77CFAA06101A801F032F803
:10537000294601A809F0A0F901A904F11C00FFF7D2
:105380006FFA206201A801F025F8294601A809F06A
:105390009AF901A904F12400FFF762FAA06201A8BA
:1053A00001F018F8284609F098F92063284609F01A
:1053B00099F9606303B030BD37B5084614460D4611
:1053C0000FF009FD606128460FF008FDA061284636
:1053D0000FF023FD0023A360E3616362E362012316
:1053E00084F86C306063294601A80FF0FAFC01A92B
:1053F00004F10800FFF734FAE06001A800F0EAFFCA
:10540000294601A80FF0F4FC01A904F11C00FFF7E4
:105410003CFA206201A801F07BFB294601A80FF0AD
:10542000EEFC01A904F12400FFF72FFAA06201A805
:1054300001F06EFB294601A80FF0E8FC01A904F178
:105440002C00FFF722FA206301A801F061FB284637
:105450000FF0E6FCA06328460FF0E7FCE06303B022
:1054600030BD37B5084614460D460FF085FC606127
:1054700028460FF084FCA06128460FF09FFC002313
:10548000A360E3616362E362012384F86C306063CC
:10549000294601A80FF076FC01A904F10800FFF7E6
:1054A000DFF9E06001A800F095FF294601A80FF0A0
:1054B00070FC01A904F11C00FFF7E7F9206201A8C4
:1054C00001F026FB294601A80FF06AFC01A904F1AE
:1054D0002400FFF7DAF9A06201A801F019FB2946C0
:1054E00001A80FF064FC01A904F12C00FFF7CDF92D
:1054F000206301A801F00CFB28460FF062FCA063BA
:1055000028460FF063FCE06303B030BD13B50C46D2
:1055100001A811461A466B46FFF738FC049A01A908
:10552000204609F06DFA044601A800F053FF20461A
:1055300002B010BD13B50C4601A811461A466B46C1
:10554000FFF724FC049A01A920460FF0CFFD044682
:1055500001A800F03FFF204602B010BD08461146EA
:1055600009F05DBA084611460FF0CFBD084609F0B4
:10557000A8B908460FF01BBD82B0F0B587B005464C
:105580009DF850700D93742F16461398DDE9112184
:105590000FAC0DAB1ED00ED8642F2DD0CDE903106B
:1055A000029294E803008DE8030031460CCB2846B4
:1055B00009F0DEF91AE0772F2BD0CDE90310029223
:1055C00094E803008DE8030031460CCB284609F02F
:1055D000EBF90BE0CDE90310029294E803008DE8AB
:1055E000030031460CCB284609F06EF9284607B077
:1055F000BDE8F04002B07047CDE90310029294E894
:1056000003008DE8030031460CCB284609F078F9F9
:10561000ECE7CDE90310029294E803008DE8030063
:1056200031460CCB284609F087F9DFE782B0F0B5A8
:1056300087B005469DF850700D93742F1646139849
:10564000DDE911210FAC0DAB1ED00ED8642F2DD08B
:10565000CDE90310029294E803008DE8030031467F
:105660000CCB28460FF0FAFC1AE0772F2BD0CDE9AF
:105670000310029294E803008DE8030031460CCB3E
:1056800028460FF007FD0BE0CDE90310029294E8E5
:1056900003008DE8030031460CCB28460FF08AFC4E
:1056A000284607B0BDE8F04002B07047CDE90310CE
:1056B000029294E803008DE8030031460CCB2846A3
:1056C0000FF094FCECE7CDE90310029294E803009C
:1056D0008DE8030031460CCB28460FF0A3FCDFE732
:1056E000F8B5AF4A0C466FF00103AE49054614F019
:1056F000A5FF064610B104682046F8BDAA4B9C429F
:1057000029D1682015F010F8A84B46600746C0E97B
:105710000266C0E90566C0E9076603600674868410
:1057200080F86460142014F0FFFFA14B4660036012
:10573000876031460446FEF777F96B68E560013310
:105740006B609C4B236027613A4629464FF000006E
:1057500004F00DFED0E7984B9C4210D1102014F0BD
:10576000E3FF964B036046600446FCF737FF6B6827
:10577000C4E9020501336B60914B2360BCE7914B98
:105780009C420AD10C2014F0CFFF6B6801336B6090
:10579000C0E901658C4B0446EFE78C4B9C420AD173
:1057A0000C2014F0C1FF6B6801336B60C0E9016528
:1057B000874B0446E1E7874B9C420AD10C2014F04A
:1057C000B3FF6B6801336B60C0E90165824B04462F
:1057D000D3E7824B9C422FD1442014F0A5FF804B8D
:1057E00006820746C0E90036C0E90266C0E90566E0
:1057F000C0E90766C0E90966C0E90B6686744663BE
:1058000080F84360142014F08FFF764B46600360ED
:105810008760324631460446FDF76EFE6B68E560F0
:1058200001336B60704B236027613A4629464FF085
:10583000000004F02CFE5FE76C4B9C422FD144200B
:1058400014F072FF6A4B06820746C0E90036C0E9D1
:105850000266C0E90566C0E90766C0E90966C0E9F5
:105860000B668674466380F84360142014F05CFF76
:10587000604B466003608760324631460446FDF760
:105880007FFE6B68E56001336B605B4B23602761D3
:105890003A4629464FF0000004F04FFE2CE7574BE4
:1058A0009C420CD1142014F03FFF3146044609F00D
:1058B00097F86B68256101336B60514B5DE7514B85
:1058C0009C422CD14FF4947014F02EFF00274E4BC5
:1058D00047600646C0E90277C0E90577C0E9077767
:1058E000C0E909770360077480F82471142014F06C
:1058F0001BFF464B47600360866039460446FEF74F
:10590000FBF86B68E56001336B60414B23602661F7
:10591000324629464FF0000004F067FDECE63D4BAF
:105920009C4210D1102014F0FFFE002343603A4B3C
:1059300003600446FCF752FE6B6801336B60C4E9F8
:105940000205364B19E7364B9C420BD10C2014F064
:10595000EBFE0023C0E901356B6801336B60044640
:10596000304B0AE7304B9C420BD10C2014F0DCFE8C
:105970000023C0E901356B6801336B6004462B4B93
:10598000FBE62B4B9C4257D10C2014F0CDFE00239C
:10599000C0E901356B6801336B600446254BECE6CA
:1059A000B4500208904B0208901D0020B44C02082D
:1059B000806B0208A05602087C1D0020646B020860
:1059C00030560208841D0020E8560208A01D002061
:1059D000385702089C1D002068570208941D0020BB
:1059E0003C4C0208306C0208CC570208981D00207D
:1059F0004C4C0208646C020898570208801D002075
:105A000068560208F01D0020C44C02087873020892
:105A1000C4560208DC1D00201C7302084C56020804
:105A2000E41D002010570208001E002050570208F5
:105A3000FC1D0020805702083E4B9C4231D1702053
:105A400014F072FE00273C4B47600646C0E902771F
:105A5000C0E90577C0E90777C0E90977C0E90B77A6
:105A6000C0E90D7703600774C76380F86C70142079
:105A700014F05AFE314B4760036086603A4639465F
:105A80000446FDF7F5FD6B68E56001336B602C4B58
:105A900023602661324629464FF0000004F0A3FD42
:105AA0002AE6284B9C4231D1702014F03DFE00279D
:105AB000254B47600646C0E90277C0E90577C0E993
:105AC0000777C0E90977C0E90B77C0E90D77036074
:105AD0000774C76380F86C70142014F025FE1B4B0C
